###############################################################################
#
# IAR ELF Linker V8.32.1.169/W32 for ARM                  18/May/2021  19:21:51
# Copyright 2007-2018 IAR Systems AB.
#
#    Output file  =  
#        D:\CC2338_RTThread\cc2538_MQTT\cc2538--mqtt\Debug\Exe\cc2538one.hex
#    Map file     =  
#        D:\CC2338_RTThread\cc2538_MQTT\cc2538--mqtt\Debug\List\cc2538one.map
#    Command line =  
#        -f C:\Users\28956\AppData\Local\Temp\EW37BE.tmp
#        (D:\CC2338_RTThread\cc2538_MQTT\cc2538--mqtt\Debug\Obj\adc.o
#        D:\CC2338_RTThread\cc2538_MQTT\cc2538--mqtt\Debug\Obj\Application.o
#        D:\CC2338_RTThread\cc2538_MQTT\cc2538--mqtt\Debug\Obj\backtrace.o
#        D:\CC2338_RTThread\cc2538_MQTT\cc2538--mqtt\Debug\Obj\board.o
#        D:\CC2338_RTThread\cc2538_MQTT\cc2538--mqtt\Debug\Obj\cc2538_wdgg.o
#        D:\CC2338_RTThread\cc2538_MQTT\cc2538--mqtt\Debug\Obj\CC2538cpu.o
#        D:\CC2338_RTThread\cc2538_MQTT\cc2538--mqtt\Debug\Obj\CC2538GPIO.o
#        D:\CC2338_RTThread\cc2538_MQTT\cc2538--mqtt\Debug\Obj\clock.o
#        D:\CC2338_RTThread\cc2538_MQTT\cc2538--mqtt\Debug\Obj\cmd.o
#        D:\CC2338_RTThread\cc2538_MQTT\cc2538--mqtt\Debug\Obj\completion.o
#        D:\CC2338_RTThread\cc2538_MQTT\cc2538--mqtt\Debug\Obj\components.o
#        D:\CC2338_RTThread\cc2538_MQTT\cc2538--mqtt\Debug\Obj\context_iar.o
#        D:\CC2338_RTThread\cc2538_MQTT\cc2538--mqtt\Debug\Obj\cpu.o
#        D:\CC2338_RTThread\cc2538_MQTT\cc2538--mqtt\Debug\Obj\cpuport.o
#        D:\CC2338_RTThread\cc2538_MQTT\cc2538--mqtt\Debug\Obj\dataqueue.o
#        D:\CC2338_RTThread\cc2538_MQTT\cc2538--mqtt\Debug\Obj\debug.o
#        D:\CC2338_RTThread\cc2538_MQTT\cc2538--mqtt\Debug\Obj\device.o
#        D:\CC2338_RTThread\cc2538_MQTT\cc2538--mqtt\Debug\Obj\display.o
#        D:\CC2338_RTThread\cc2538_MQTT\cc2538--mqtt\Debug\Obj\div0.o
#        D:\CC2338_RTThread\cc2538_MQTT\cc2538--mqtt\Debug\Obj\finsh_compiler.o
#        D:\CC2338_RTThread\cc2538_MQTT\cc2538--mqtt\Debug\Obj\finsh_error.o
#        D:\CC2338_RTThread\cc2538_MQTT\cc2538--mqtt\Debug\Obj\finsh_heap.o
#        D:\CC2338_RTThread\cc2538_MQTT\cc2538--mqtt\Debug\Obj\finsh_init.o
#        D:\CC2338_RTThread\cc2538_MQTT\cc2538--mqtt\Debug\Obj\finsh_node.o
#        D:\CC2338_RTThread\cc2538_MQTT\cc2538--mqtt\Debug\Obj\finsh_ops.o
#        D:\CC2338_RTThread\cc2538_MQTT\cc2538--mqtt\Debug\Obj\finsh_parser.o
#        D:\CC2338_RTThread\cc2538_MQTT\cc2538--mqtt\Debug\Obj\finsh_token.o
#        D:\CC2338_RTThread\cc2538_MQTT\cc2538--mqtt\Debug\Obj\finsh_var.o
#        D:\CC2338_RTThread\cc2538_MQTT\cc2538--mqtt\Debug\Obj\finsh_vm.o
#        D:\CC2338_RTThread\cc2538_MQTT\cc2538--mqtt\Debug\Obj\flash.o
#        D:\CC2338_RTThread\cc2538_MQTT\cc2538--mqtt\Debug\Obj\gpio.o
#        D:\CC2338_RTThread\cc2538_MQTT\cc2538--mqtt\Debug\Obj\gptimer.o
#        D:\CC2338_RTThread\cc2538_MQTT\cc2538--mqtt\Debug\Obj\hwtimer.o
#        D:\CC2338_RTThread\cc2538_MQTT\cc2538--mqtt\Debug\Obj\i2c.o
#        D:\CC2338_RTThread\cc2538_MQTT\cc2538--mqtt\Debug\Obj\idle.o
#        D:\CC2338_RTThread\cc2538_MQTT\cc2538--mqtt\Debug\Obj\interrupt.o
#        D:\CC2338_RTThread\cc2538_MQTT\cc2538--mqtt\Debug\Obj\io_pin_int.o
#        D:\CC2338_RTThread\cc2538_MQTT\cc2538--mqtt\Debug\Obj\ioc.o
#        D:\CC2338_RTThread\cc2538_MQTT\cc2538--mqtt\Debug\Obj\ipc.o
#        D:\CC2338_RTThread\cc2538_MQTT\cc2538--mqtt\Debug\Obj\irq.o
#        D:\CC2338_RTThread\cc2538_MQTT\cc2538--mqtt\Debug\Obj\key.o
#        D:\CC2338_RTThread\cc2538_MQTT\cc2538--mqtt\Debug\Obj\kservice.o
#        D:\CC2338_RTThread\cc2538_MQTT\cc2538--mqtt\Debug\Obj\LED.o
#        D:\CC2338_RTThread\cc2538_MQTT\cc2538--mqtt\Debug\Obj\mem.o
#        D:\CC2338_RTThread\cc2538_MQTT\cc2538--mqtt\Debug\Obj\memheap.o
#        D:\CC2338_RTThread\cc2538_MQTT\cc2538--mqtt\Debug\Obj\mempool.o
#        D:\CC2338_RTThread\cc2538_MQTT\cc2538--mqtt\Debug\Obj\MQTTConnectClient.o
#        D:\CC2338_RTThread\cc2538_MQTT\cc2538--mqtt\Debug\Obj\MQTTConnectServer.o
#        D:\CC2338_RTThread\cc2538_MQTT\cc2538--mqtt\Debug\Obj\MQTTDeserializePublish.o
#        D:\CC2338_RTThread\cc2538_MQTT\cc2538--mqtt\Debug\Obj\MQTTFormat.o
#        D:\CC2338_RTThread\cc2538_MQTT\cc2538--mqtt\Debug\Obj\MQTTPacket.o
#        D:\CC2338_RTThread\cc2538_MQTT\cc2538--mqtt\Debug\Obj\MQTTSerializePublish.o
#        D:\CC2338_RTThread\cc2538_MQTT\cc2538--mqtt\Debug\Obj\MQTTSubscribeClient.o
#        D:\CC2338_RTThread\cc2538_MQTT\cc2538--mqtt\Debug\Obj\MQTTSubscribeServer.o
#        D:\CC2338_RTThread\cc2538_MQTT\cc2538--mqtt\Debug\Obj\MQTTUnsubscribeClient.o
#        D:\CC2338_RTThread\cc2538_MQTT\cc2538--mqtt\Debug\Obj\MQTTUnsubscribeServer.o
#        D:\CC2338_RTThread\cc2538_MQTT\cc2538--mqtt\Debug\Obj\msh.o
#        D:\CC2338_RTThread\cc2538_MQTT\cc2538--mqtt\Debug\Obj\msh_cmd.o
#        D:\CC2338_RTThread\cc2538_MQTT\cc2538--mqtt\Debug\Obj\msh_file.o
#        D:\CC2338_RTThread\cc2538_MQTT\cc2538--mqtt\Debug\Obj\object.o
#        D:\CC2338_RTThread\cc2538_MQTT\cc2538--mqtt\Debug\Obj\pin.o
#        D:\CC2338_RTThread\cc2538_MQTT\cc2538--mqtt\Debug\Obj\pipe.o
#        D:\CC2338_RTThread\cc2538_MQTT\cc2538--mqtt\Debug\Obj\ringblk_buf.o
#        D:\CC2338_RTThread\cc2538_MQTT\cc2538--mqtt\Debug\Obj\ringbuffer.o
#        D:\CC2338_RTThread\cc2538_MQTT\cc2538--mqtt\Debug\Obj\rt_Timer.o
#        D:\CC2338_RTThread\cc2538_MQTT\cc2538--mqtt\Debug\Obj\rt_uart.o
#        D:\CC2338_RTThread\cc2538_MQTT\cc2538--mqtt\Debug\Obj\rt_wdg.o
#        D:\CC2338_RTThread\cc2538_MQTT\cc2538--mqtt\Debug\Obj\scheduler.o
#        D:\CC2338_RTThread\cc2538_MQTT\cc2538--mqtt\Debug\Obj\serial.o
#        D:\CC2338_RTThread\cc2538_MQTT\cc2538--mqtt\Debug\Obj\shell.o
#        D:\CC2338_RTThread\cc2538_MQTT\cc2538--mqtt\Debug\Obj\showmem.o
#        D:\CC2338_RTThread\cc2538_MQTT\cc2538--mqtt\Debug\Obj\signal.o
#        D:\CC2338_RTThread\cc2538_MQTT\cc2538--mqtt\Debug\Obj\slab.o
#        D:\CC2338_RTThread\cc2538_MQTT\cc2538--mqtt\Debug\Obj\startup_iar.o
#        D:\CC2338_RTThread\cc2538_MQTT\cc2538--mqtt\Debug\Obj\strart_rtt.o
#        D:\CC2338_RTThread\cc2538_MQTT\cc2538--mqtt\Debug\Obj\symbol.o
#        D:\CC2338_RTThread\cc2538_MQTT\cc2538--mqtt\Debug\Obj\sys_ctrl.o
#        D:\CC2338_RTThread\cc2538_MQTT\cc2538--mqtt\Debug\Obj\systick.o
#        D:\CC2338_RTThread\cc2538_MQTT\cc2538--mqtt\Debug\Obj\thread.o
#        D:\CC2338_RTThread\cc2538_MQTT\cc2538--mqtt\Debug\Obj\timer.o
#        D:\CC2338_RTThread\cc2538_MQTT\cc2538--mqtt\Debug\Obj\uart.o
#        D:\CC2338_RTThread\cc2538_MQTT\cc2538--mqtt\Debug\Obj\udma.o
#        D:\CC2338_RTThread\cc2538_MQTT\cc2538--mqtt\Debug\Obj\waitqueue.o
#        D:\CC2338_RTThread\cc2538_MQTT\cc2538--mqtt\Debug\Obj\watchdog.o
#        D:\CC2338_RTThread\cc2538_MQTT\cc2538--mqtt\Debug\Obj\workqueue.o
#        --no_out_extension -o
#        D:\CC2338_RTThread\cc2538_MQTT\cc2538--mqtt\Debug\Exe\cc2538one.hex
#        --map
#        D:\CC2338_RTThread\cc2538_MQTT\cc2538--mqtt\Debug\List\cc2538one.map
#        --config "D:\IAR\CC2538\IAR Embedded Workbench for ARM
#        8.32.1\arm\config\linker\TexasInstruments\cx2538xf53.icf"
#        --semihosting --entry __iar_program_start --vfe --text_out locale)
#
###############################################################################

*******************************************************************************
*** RUNTIME MODEL ATTRIBUTES
***

CppFlavor       = *
__SystemLibrary = DLib
__dlib_version  = 6


*******************************************************************************
*** HEAP SELECTION
***

The basic heap was selected because no calls to memory allocation
functions were found in the application outside of system library
functions, and there are calls to deallocation functions in the
application.


*******************************************************************************
*** PLACEMENT SUMMARY
***

"A0":  place at 0x20'0000 { ro section .intvec };
"A1":  place at start of [from 0x27'ffd4 to 0x27'ffdf] { ro section .flashcca };
"P1":  place in [from 0x20'0000 to 0x27'ffd3] { ro };
"A2":  place at start of [from 0x2000'4000 to 0x2000'7fff] { section VTABLE };
define block HEAP with size = 4K, alignment = 8 { };
"P2":  place in [from 0x2000'4000 to 0x2000'7fff] { rw, block HEAP };
define block CSTACK with size = 2K, alignment = 8 { section .stack };
"A3":  place at end of [from 0x2000'4000 to 0x2000'7fff] { block CSTACK };
do not initialize { section .stack };
initialize by copy { rw };

No sections matched the following patterns:

  section .nonretenvar  in "P3"


  Section            Kind         Address    Size  Object
  -------            ----         -------    ----  ------
"A0":                                       0x100
  .intvec            const      0x20'0000   0x100  startup_iar.o [1]
                              - 0x20'0100   0x100

"P1":                                      0xde05
  .text              ro code    0x20'0100  0x1280  finsh_compiler.o [1]
  .text              ro code    0x20'1380    0x2c  finsh_error.o [1]
  .text              ro code    0x20'13ac    0x66  ABImemset.o [4]
  .text              ro code    0x20'1412    0x7a  lz77_init_single.o [4]
  .text              ro code    0x20'148c   0xa54  cmd.o [1]
  .text              ro code    0x20'1ee0   0x786  kservice.o [1]
  .text              ro code    0x20'2666    0x3a  zero_init3.o [4]
  .text              ro code    0x20'26a0   0x278  scheduler.o [1]
  .text              ro code    0x20'2918   0x278  object.o [1]
  .text              ro code    0x20'2b90    0x68  clock.o [1]
  .text              ro code    0x20'2bf8    0xa6  ABImemcpy.o [4]
  .text              ro code    0x20'2c9e    0x28  strncmp.o [2]
  .text              ro code    0x20'2cc8    0x36  strlen.o [4]
  .text              ro code    0x20'2d00    0x5c  irq.o [1]
  .text              ro code    0x20'2d5c   0x4dc  thread.o [1]
  .text              ro code    0x20'3238   0x32c  device.o [1]
  .text              ro code    0x20'3564    0xfc  context_iar.o [1]
  .text              ro code    0x20'3660   0x540  mem.o [1]
  .text              ro code    0x20'3ba0   0x3f6  timer.o [1]
  .text              ro code    0x20'3f98   0x340  cpuport.o [1]
  .text              ro code    0x20'42d8   0x2b4  ipc.o [1]
  .text              ro code    0x20'458c   0xa44  shell.o [1]
  .text              ro code    0x20'4fd0    0x70  strncpy.o [4]
  .text              ro code    0x20'5040   0x324  msh.o [1]
  .text              ro code    0x20'5364    0x18  strcpy.o [4]
  .text              ro code    0x20'537c    0x1e  strcat.o [2]
  .text              ro code    0x20'539a   0x9ac  finsh_parser.o [1]
  .text              ro code    0x20'5d48    0x9c  finsh_vm.o [1]
  .text              ro code    0x20'5de4    0x36  finsh_init.o [1]
  .text              ro code    0x20'5e1c    0x68  memcmp.o [4]
  .text              ro code    0x20'5e84   0x124  finsh_var.o [1]
  .text              ro code    0x20'5fa8   0x68e  finsh_token.o [1]
  .text              ro code    0x20'6638   0x184  finsh_node.o [1]
  .text              ro code    0x20'67bc    0x12  strcmp.o [4]
  .text              ro code    0x20'67d0   0x216  finsh_heap.o [1]
  .text              ro code    0x20'69e8   0x150  iar_Stoulx.o [2]
  .text              ro code    0x20'6b38    0x58  memchr.o [4]
  .text              ro code    0x20'6b90   0x85c  finsh_ops.o [1]
  .text              ro code    0x20'73ec   0x62c  serial.o [1]
  .text              ro code    0x20'7a18   0x178  completion.o [1]
  .text              ro code    0x20'7b90   0x4e4  io_pin_int.o [1]
  .text              ro code    0x20'8074   0x128  interrupt.o [1]
  .text              ro code    0x20'819c   0x404  gpio.o [1]
  .text              ro code    0x20'85a0    0x10  CC2538cpu.o [1]
  .text              ro code    0x20'85b0     0x2  debug.o [1]
  .text              ro code    0x20'85b4   0x4d0  ioc.o [1]
  .text              ro code    0x20'8a84   0x494  hwtimer.o [1]
  .text              ro code    0x20'8f18    0x1c  U32ToFlt.o [3]
  .text              ro code    0x20'8f34    0x24  S32ToFlt.o [3]
  .text              ro code    0x20'8f58    0xfc  FltDiv.o [3]
  .text              ro code    0x20'9054    0xe2  FltAdd.o [3]
  .text              ro code    0x20'9138    0x24  FltCmpLe.o [3]
  .text              ro code    0x20'915c    0x1c  FltCmpEq.o [3]
  .text              ro code    0x20'9178    0x24  FltCmpGe.o [3]
  .text              ro code    0x20'919c    0xd8  FltMul.o [3]
  .text              ro code    0x20'9274    0x22  FltToU32.o [3]
  .text              ro code    0x20'9298    0x80  FltSub.o [3]
  .text              ro code    0x20'9318    0x2a  FltToS32.o [3]
  .text              ro code    0x20'9344   0x348  gptimer.o [1]
  .text              ro code    0x20'968c   0x33c  uart.o [1]
  .text              ro code    0x20'99c8   0x304  CC2538GPIO.o [1]
  .text              ro code    0x20'9ccc   0x218  sys_ctrl.o [1]
  .text              ro code    0x20'9ee4   0x1f4  pin.o [1]
  .text              ro code    0x20'a0d8   0x2c8  rt_uart.o [1]
  .text              ro code    0x20'a3a0   0x22c  Application.o [1]
  .text              ro code    0x20'a5cc    0x2c  components.o [1]
  .text              ro code    0x20'a5f8   0x188  LED.o [1]
  .text              ro code    0x20'a780    0xc8  MQTTSerializePublish.o [1]
  .text              ro code    0x20'a848   0x1f4  MQTTConnectClient.o [1]
  .text              ro code    0x20'aa3c   0x108  MQTTPacket.o [1]
  .text              ro code    0x20'ab44   0x1dc  rt_Timer.o [1]
  FSymTab                       0x20'ad20   0x1bc  <Block>
    FSymTab          const      0x20'ad20     0xc  cmd.o [1]
    FSymTab          const      0x20'ad2c     0xc  cmd.o [1]
    FSymTab          const      0x20'ad38     0xc  cmd.o [1]
    FSymTab          const      0x20'ad44     0xc  cmd.o [1]
    FSymTab          const      0x20'ad50     0xc  cmd.o [1]
    FSymTab          const      0x20'ad5c     0xc  cmd.o [1]
    FSymTab          const      0x20'ad68     0xc  cmd.o [1]
    FSymTab          const      0x20'ad74     0xc  cmd.o [1]
    FSymTab          const      0x20'ad80     0xc  cmd.o [1]
    FSymTab          const      0x20'ad8c     0xc  cmd.o [1]
    FSymTab          const      0x20'ad98     0xc  cmd.o [1]
    FSymTab          const      0x20'ada4     0xc  cmd.o [1]
    FSymTab          const      0x20'adb0     0xc  cmd.o [1]
    FSymTab          const      0x20'adbc     0xc  cmd.o [1]
    FSymTab          const      0x20'adc8     0xc  cmd.o [1]
    FSymTab          const      0x20'add4     0xc  cmd.o [1]
    FSymTab          const      0x20'ade0     0xc  cmd.o [1]
    FSymTab          const      0x20'adec     0xc  cmd.o [1]
    FSymTab          const      0x20'adf8     0xc  cmd.o [1]
    FSymTab          const      0x20'ae04     0xc  cmd.o [1]
    FSymTab          const      0x20'ae10     0xc  cmd.o [1]
    FSymTab          const      0x20'ae1c     0xc  cmd.o [1]
    FSymTab          const      0x20'ae28     0xc  cmd.o [1]
    FSymTab          const      0x20'ae34     0xc  cmd.o [1]
    FSymTab          const      0x20'ae40     0xc  display.o [1]
    FSymTab          const      0x20'ae4c     0xc  key.o [1]
    FSymTab          const      0x20'ae58     0xc  LED.o [1]
    FSymTab          const      0x20'ae64     0xc  mem.o [1]
    FSymTab          const      0x20'ae70     0xc  msh.o [1]
    FSymTab          const      0x20'ae7c     0xc  msh.o [1]
    FSymTab          const      0x20'ae88     0xc  msh.o [1]
    FSymTab          const      0x20'ae94     0xc  msh_cmd.o [1]
    FSymTab          const      0x20'aea0     0xc  msh_cmd.o [1]
    FSymTab          const      0x20'aeac     0xc  msh_cmd.o [1]
    FSymTab          const      0x20'aeb8     0xc  pin.o [1]
    FSymTab          const      0x20'aec4     0xc  pin.o [1]
    FSymTab          const      0x20'aed0     0xc  pin.o [1]
  .text              ro code    0x20'aedc   0x160  key.o [1]
  .text              ro code    0x20'b03c   0x134  idle.o [1]
  .rodata            const      0x20'b170   0x100  kservice.o [1]
  .text              ro code    0x20'b270    0xec  display.o [1]
  .rodata            const      0x20'b35c    0xc4  finsh_ops.o [1]
  .text              ro code    0x20'b420    0xbc  board.o [1]
  .rodata            const      0x20'b4dc    0x5c  mem.o [1]
  .rodata            const      0x20'b538    0x58  Application.o [1]
  .rodata            const      0x20'b590    0x54  cmd.o [1]
  .rodata            const      0x20'b5e4    0x50  iar_Stoulx.o [2]
  .rodata            const      0x20'b634    0x4c  mem.o [1]
  .rodata            const      0x20'b680    0x48  interrupt.o [1]
  .rodata            const      0x20'b6c8    0x48  ipc.o [1]
  .rodata            const      0x20'b710    0x48  mem.o [1]
  .rodata            const      0x20'b758    0x44  cmd.o [1]
  .rodata            const      0x20'b79c    0x44  gptimer.o [1]
  .rodata            const      0x20'b7e0    0x44  sys_ctrl.o [1]
  .rodata            const      0x20'b824    0x44  thread.o [1]
  .text              ro code    0x20'b868    0x42  strart_rtt.o [1]
  .rodata            const      0x20'b8ac    0x40  cmd.o [1]
  .rodata            const      0x20'b8ec    0x40  finsh_token.o [1]
  .rodata            const      0x20'b92c    0x40  gpio.o [1]
  .rodata            const      0x20'b96c    0x40  ioc.o [1]
  .rodata            const      0x20'b9ac    0x40  uart.o [1]
  .text              ro code    0x20'b9ec    0x3e  startup_iar.o [1]
  .text              ro code    0x20'ba2a     0xc  cstartup_M.o [4]
  .text              ro code    0x20'ba38    0x1e  cmain.o [4]
  .text              ro code    0x20'ba56     0x4  low_level_init.o [2]
  .text              ro code    0x20'ba5c    0x28  data_init.o [4]
  .text              ro code    0x20'ba84     0x4  exit.o [2]
  .text              ro code    0x20'ba88     0xa  cexit.o [4]
  .text              ro code    0x20'ba94    0x14  exit.o [5]
  .rodata            const      0x20'baa8    0x3c  device.o [1]
  .rodata            const      0x20'bae4    0x3c  mem.o [1]
  .rodata            const      0x20'bb20    0x3c  scheduler.o [1]
  .rodata            const      0x20'bb5c    0x3c  thread.o [1]
  .rodata            const      0x20'bb98    0x3c  timer.o [1]
  .rodata            const      0x20'bbd4    0x38  device.o [1]
  .rodata            const      0x20'bc0c    0x38  ipc.o [1]
  .rodata            const      0x20'bc44    0x38  kservice.o [1]
  .rodata            const      0x20'bc7c    0x38  thread.o [1]
  .rodata            const      0x20'bcb4    0x34  display.o [1]
  .rodata            const      0x20'bce8    0x34  mem.o [1]
  .rodata            const      0x20'bd1c    0x30  cmd.o [1]
  .rodata            const      0x20'bd4c    0x30  completion.o [1]
  .rodata            const      0x20'bd7c    0x30  mem.o [1]
  .rodata            const      0x20'bdac    0x30  mem.o [1]
  .rodata            const      0x20'bddc    0x2c  Application.o [1]
  .rodata            const      0x20'be08    0x2c  cmd.o [1]
  .rodata            const      0x20'be34    0x2c  kservice.o [1]
  .rodata            const      0x20'be60    0x2c  mem.o [1]
  .rodata            const      0x20'be8c    0x2c  object.o [1]
  .rodata            const      0x20'beb8    0x2c  timer.o [1]
  .rodata            const      0x20'bee4    0x28  cmd.o [1]
  .rodata            const      0x20'bf0c    0x28  cmd.o [1]
  .rodata            const      0x20'bf34    0x28  cmd.o [1]
  .rodata            const      0x20'bf5c    0x28  cmd.o [1]
  .rodata            const      0x20'bf84    0x28  completion.o [1]
  .rodata            const      0x20'bfac    0x28  idle.o [1]
  .rodata            const      0x20'bfd4    0x28  ipc.o [1]
  .rodata            const      0x20'bffc    0x28  mem.o [1]
  .rodata            const      0x20'c024    0x28  mem.o [1]
  .rodata            const      0x20'c04c    0x28  object.o [1]
  .rodata.name       const      0x20'c074    0x28  msh_cmd.o [1]
  .rodata            const      0x20'c09c    0x24  Application.o [1]
  .rodata            const      0x20'c0c0    0x24  cmd.o [1]
  .rodata            const      0x20'c0e4    0x24  cmd.o [1]
  .rodata            const      0x20'c108    0x24  cmd.o [1]
  .rodata            const      0x20'c12c    0x24  cmd.o [1]
  .rodata            const      0x20'c150    0x24  cmd.o [1]
  .rodata            const      0x20'c174    0x24  cmd.o [1]
  .rodata            const      0x20'c198    0x24  kservice.o [1]
  .rodata            const      0x20'c1bc    0x24  thread.o [1]
  .rodata            const      0x20'c1e0    0x24  timer.o [1]
  .rodata.name       const      0x20'c204    0x24  cmd.o [1]
  .rodata.name       const      0x20'c228    0x24  cmd.o [1]
  .iar.init_table    const      0x20'c24c    0x20  - Linker created -
  .rodata            const      0x20'c26c    0x20  cmd.o [1]
  .rodata            const      0x20'c28c    0x20  cmd.o [1]
  .rodata            const      0x20'c2ac    0x20  cpuport.o [1]
  .rodata            const      0x20'c2cc    0x20  display.o [1]
  .rodata            const      0x20'c2ec    0x20  ioc.o [1]
  .rodata            const      0x20'c30c    0x20  ioc.o [1]
  .rodata            const      0x20'c32c    0x20  ioc.o [1]
  .rodata            const      0x20'c34c    0x20  ioc.o [1]
  .rodata            const      0x20'c36c    0x20  ioc.o [1]
  .rodata            const      0x20'c38c    0x20  ioc.o [1]
  .rodata            const      0x20'c3ac    0x20  ioc.o [1]
  .rodata            const      0x20'c3cc    0x20  ioc.o [1]
  .rodata            const      0x20'c3ec    0x20  kservice.o [1]
  .rodata            const      0x20'c40c    0x20  mem.o [1]
  .rodata            const      0x20'c42c    0x20  mem.o [1]
  .rodata            const      0x20'c44c    0x20  msh.o [1]
  .rodata            const      0x20'c46c    0x20  shell.o [1]
  .rodata.name       const      0x20'c48c    0x20  cmd.o [1]
  .rodata.name       const      0x20'c4ac    0x20  cmd.o [1]
  .rodata.name       const      0x20'c4cc    0x20  LED.o [1]
  .rodata.name       const      0x20'c4ec    0x20  mem.o [1]
  .rodata.name       const      0x20'c50c    0x20  msh.o [1]
  .rodata.name       const      0x20'c52c    0x20  pin.o [1]
  .rodata            const      0x20'c54c    0x1c  Application.o [1]
  .rodata            const      0x20'c568    0x1c  cmd.o [1]
  .rodata            const      0x20'c584    0x1c  cmd.o [1]
  .rodata            const      0x20'c5a0    0x1c  cmd.o [1]
  .rodata            const      0x20'c5bc    0x1c  cmd.o [1]
  .rodata            const      0x20'c5d8    0x1c  cmd.o [1]
  .rodata            const      0x20'c5f4    0x1c  cmd.o [1]
  .rodata            const      0x20'c610    0x1c  cpuport.o [1]
  .rodata            const      0x20'c62c    0x1c  device.o [1]
  .rodata            const      0x20'c648    0x1c  display.o [1]
  .rodata            const      0x20'c664    0x1c  display.o [1]
  .rodata            const      0x20'c680    0x1c  hwtimer.o [1]
  .rodata            const      0x20'c69c    0x1c  key.o [1]
  .rodata            const      0x20'c6b8    0x1c  mem.o [1]
  .rodata            const      0x20'c6d4    0x1c  mem.o [1]
  .rodata            const      0x20'c6f0    0x1c  msh.o [1]
  .rodata            const      0x20'c70c    0x1c  object.o [1]
  .rodata            const      0x20'c728    0x1c  scheduler.o [1]
  .rodata            const      0x20'c744    0x1c  scheduler.o [1]
  .rodata            const      0x20'c760    0x1c  scheduler.o [1]
  .rodata            const      0x20'c77c    0x1c  scheduler.o [1]
  .rodata            const      0x20'c798    0x1c  shell.o [1]
  .rodata.name       const      0x20'c7b4    0x1c  cmd.o [1]
  .rodata.name       const      0x20'c7d0    0x1c  cmd.o [1]
  .rodata.name       const      0x20'c7ec    0x1c  cmd.o [1]
  .rodata.name       const      0x20'c808    0x1c  cmd.o [1]
  .rodata.name       const      0x20'c824    0x1c  cmd.o [1]
  .rodata.name       const      0x20'c840    0x1c  cmd.o [1]
  .rodata.name       const      0x20'c85c    0x1c  cmd.o [1]
  .rodata.name       const      0x20'c878    0x1c  cmd.o [1]
  .rodata.name       const      0x20'c894    0x1c  msh_cmd.o [1]
  .rodata.name       const      0x20'c8b0    0x1c  msh_cmd.o [1]
  .rodata.name       const      0x20'c8cc    0x1c  pin.o [1]
  .rodata            const      0x20'c8e8    0x18  CC2538GPIO.o [1]
  .rodata            const      0x20'c900    0x18  cmd.o [1]
  .rodata            const      0x20'c918    0x18  cmd.o [1]
  .rodata            const      0x20'c930    0x18  cmd.o [1]
  .rodata            const      0x20'c948    0x18  cmd.o [1]
  .rodata            const      0x20'c960    0x18  cmd.o [1]
  .rodata            const      0x20'c978    0x18  cmd.o [1]
  .rodata            const      0x20'c990    0x18  cmd.o [1]
  .rodata            const      0x20'c9a8    0x18  cmd.o [1]
  .rodata            const      0x20'c9c0    0x18  cmd.o [1]
  .rodata            const      0x20'c9d8    0x18  completion.o [1]
  .rodata            const      0x20'c9f0    0x18  cpuport.o [1]
  .rodata            const      0x20'ca08    0x18  cpuport.o [1]
  .rodata            const      0x20'ca20    0x18  cpuport.o [1]
  .rodata            const      0x20'ca38    0x18  cpuport.o [1]
  .rodata            const      0x20'ca50    0x18  device.o [1]
  .rodata            const      0x20'ca68    0x18  display.o [1]
  .rodata            const      0x20'ca80    0x18  hwtimer.o [1]
  .rodata            const      0x20'ca98    0x18  hwtimer.o [1]
  .rodata            const      0x20'cab0    0x18  idle.o [1]
  .rodata            const      0x20'cac8    0x18  LED.o [1]
  .rodata            const      0x20'cae0    0x18  msh.o [1]
  .rodata            const      0x20'caf8    0x18  object.o [1]
  .rodata            const      0x20'cb10    0x18  pin.o [1]
  .rodata            const      0x20'cb28    0x18  serial.o [1]
  .rodata            const      0x20'cb40    0x18  shell.o [1]
  .rodata            const      0x20'cb58    0x18  shell.o [1]
  .rodata            const      0x20'cb70    0x18  shell.o [1]
  .rodata            const      0x20'cb88    0x18  sys_ctrl.o [1]
  .rodata            const      0x20'cba0    0x18  thread.o [1]
  .rodata.name       const      0x20'cbb8    0x18  cmd.o [1]
  .rodata.name       const      0x20'cbd0    0x18  cmd.o [1]
  .rodata.name       const      0x20'cbe8    0x18  cmd.o [1]
  .rodata.name       const      0x20'cc00    0x18  cmd.o [1]
  .rodata.name       const      0x20'cc18    0x18  cmd.o [1]
  .rodata.name       const      0x20'cc30    0x18  cmd.o [1]
  .rodata.name       const      0x20'cc48    0x18  cmd.o [1]
  .rodata.name       const      0x20'cc60    0x18  cmd.o [1]
  .rodata.name       const      0x20'cc78    0x18  cmd.o [1]
  .rodata.name       const      0x20'cc90    0x18  cmd.o [1]
  .rodata.name       const      0x20'cca8    0x18  display.o [1]
  .rodata.name       const      0x20'ccc0    0x18  key.o [1]
  .rodata.name       const      0x20'ccd8    0x18  msh.o [1]
  .rodata.name       const      0x20'ccf0    0x18  pin.o [1]
  .text              ro code    0x20'cd08    0x18  msh_cmd.o [1]
  .rodata            const      0x20'cd20    0x14  Application.o [1]
  .rodata            const      0x20'cd34    0x14  cmd.o [1]
  .rodata            const      0x20'cd48    0x14  cmd.o [1]
  .rodata            const      0x20'cd5c    0x14  cmd.o [1]
  .rodata            const      0x20'cd70    0x14  cmd.o [1]
  .rodata            const      0x20'cd84    0x14  cmd.o [1]
  .rodata            const      0x20'cd98    0x14  cmd.o [1]
  .rodata            const      0x20'cdac    0x14  cmd.o [1]
  .rodata            const      0x20'cdc0    0x14  cmd.o [1]
  .rodata            const      0x20'cdd4    0x14  cmd.o [1]
  .rodata            const      0x20'cde8    0x14  cmd.o [1]
  .rodata            const      0x20'cdfc    0x14  cmd.o [1]
  .rodata            const      0x20'ce10    0x14  completion.o [1]
  .rodata            const      0x20'ce24    0x14  completion.o [1]
  .rodata            const      0x20'ce38    0x14  completion.o [1]
  .rodata            const      0x20'ce4c    0x14  cpuport.o [1]
  .rodata            const      0x20'ce60    0x14  device.o [1]
  .rodata            const      0x20'ce74    0x14  device.o [1]
  .rodata            const      0x20'ce88    0x14  finsh_error.o [1]
  .rodata            const      0x20'ce9c    0x14  finsh_error.o [1]
  .rodata            const      0x20'ceb0    0x14  finsh_error.o [1]
  .rodata            const      0x20'cec4    0x14  finsh_error.o [1]
  .rodata            const      0x20'ced8    0x14  hwtimer.o [1]
  .rodata            const      0x20'ceec    0x14  interrupt.o [1]
  .rodata            const      0x20'cf00    0x14  ipc.o [1]
  .rodata            const      0x20'cf14    0x14  kservice.o [1]
  .rodata            const      0x20'cf28    0x14  kservice.o [1]
  .rodata            const      0x20'cf3c    0x14  LED.o [1]
  .rodata            const      0x20'cf50    0x14  mem.o [1]
  .rodata            const      0x20'cf64    0x14  mem.o [1]
  .rodata            const      0x20'cf78    0x14  mem.o [1]
  .rodata            const      0x20'cf8c    0x14  object.o [1]
  .rodata            const      0x20'cfa0    0x14  object.o [1]
  .rodata            const      0x20'cfb4    0x14  object.o [1]
  .rodata            const      0x20'cfc8    0x14  object.o [1]
  .rodata            const      0x20'cfdc    0x14  object.o [1]
  .rodata            const      0x20'cff0    0x14  pin.o [1]
  .rodata            const      0x20'd004    0x14  pin.o [1]
  .rodata            const      0x20'd018    0x14  rt_Timer.o [1]
  .rodata            const      0x20'd02c    0x14  rt_uart.o [1]
  .rodata            const      0x20'd040    0x14  rt_uart.o [1]
  .rodata            const      0x20'd054    0x14  scheduler.o [1]
  .rodata            const      0x20'd068    0x14  serial.o [1]
  .rodata            const      0x20'd07c    0x14  serial.o [1]
  .rodata            const      0x20'd090    0x14  serial.o [1]
  .rodata            const      0x20'd0a4    0x14  serial.o [1]
  .rodata            const      0x20'd0b8    0x14  serial.o [1]
  .rodata            const      0x20'd0cc    0x14  shell.o [1]
  .rodata            const      0x20'd0e0    0x14  shell.o [1]
  .rodata            const      0x20'd0f4    0x14  shell.o [1]
  .rodata            const      0x20'd108    0x14  shell.o [1]
  .rodata            const      0x20'd11c    0x14  thread.o [1]
  .rodata            const      0x20'd130    0x14  thread.o [1]
  .rodata            const      0x20'd144    0x14  thread.o [1]
  .rodata            const      0x20'd158    0x14  thread.o [1]
  .rodata            const      0x20'd16c    0x14  thread.o [1]
  .rodata            const      0x20'd180    0x14  timer.o [1]
  .rodata            const      0x20'd194    0x14  timer.o [1]
  .rodata.name       const      0x20'd1a8    0x14  cmd.o [1]
  .rodata.name       const      0x20'd1bc    0x14  cmd.o [1]
  .rodata.name       const      0x20'd1d0    0x14  cmd.o [1]
  .rodata.name       const      0x20'd1e4    0x14  cmd.o [1]
  .rodata.name       const      0x20'd1f8    0x14  cmd.o [1]
  .rodata.name       const      0x20'd20c    0x14  cmd.o [1]
  .rodata.name       const      0x20'd220    0x14  cmd.o [1]
  .rodata.name       const      0x20'd234    0x14  cmd.o [1]
  .rodata.name       const      0x20'd248    0x14  cmd.o [1]
  .rodata.name       const      0x20'd25c    0x14  msh.o [1]
  .rodata            const      0x20'd270    0x10  Application.o [1]
  .rodata            const      0x20'd280    0x10  Application.o [1]
  .rodata            const      0x20'd290    0x10  Application.o [1]
  .rodata            const      0x20'd2a0    0x10  Application.o [1]
  .rodata            const      0x20'd2b0    0x10  cmd.o [1]
  .rodata            const      0x20'd2c0    0x10  cmd.o [1]
  .rodata            const      0x20'd2d0    0x10  cmd.o [1]
  .rodata            const      0x20'd2e0    0x10  cmd.o [1]
  .rodata            const      0x20'd2f0    0x10  cmd.o [1]
  .rodata            const      0x20'd300    0x10  cmd.o [1]
  .rodata            const      0x20'd310    0x10  cmd.o [1]
  .rodata            const      0x20'd320    0x10  cmd.o [1]
  .rodata            const      0x20'd330    0x10  cmd.o [1]
  .rodata            const      0x20'd340    0x10  cmd.o [1]
  .rodata            const      0x20'd350    0x10  cmd.o [1]
  .rodata            const      0x20'd360    0x10  cmd.o [1]
  .rodata            const      0x20'd370    0x10  cmd.o [1]
  .rodata            const      0x20'd380    0x10  cpuport.o [1]
  .rodata            const      0x20'd390    0x10  cpuport.o [1]
  .rodata            const      0x20'd3a0    0x10  cpuport.o [1]
  .rodata            const      0x20'd3b0    0x10  cpuport.o [1]
  .rodata            const      0x20'd3c0    0x10  cpuport.o [1]
  .rodata            const      0x20'd3d0    0x10  cpuport.o [1]
  .rodata            const      0x20'd3e0    0x10  cpuport.o [1]
  .rodata            const      0x20'd3f0    0x10  cpuport.o [1]
  .rodata            const      0x20'd400    0x10  cpuport.o [1]
  .rodata            const      0x20'd410    0x10  cpuport.o [1]
  .rodata            const      0x20'd420    0x10  cpuport.o [1]
  .rodata            const      0x20'd430    0x10  cpuport.o [1]
  .rodata            const      0x20'd440    0x10  cpuport.o [1]
  .rodata            const      0x20'd450    0x10  cpuport.o [1]
  .rodata            const      0x20'd460    0x10  cpuport.o [1]
  .rodata            const      0x20'd470    0x10  cpuport.o [1]
  .rodata            const      0x20'd480    0x10  cpuport.o [1]
  .rodata            const      0x20'd490    0x10  cpuport.o [1]
  .rodata            const      0x20'd4a0    0x10  cpuport.o [1]
  .rodata            const      0x20'd4b0    0x10  cpuport.o [1]
  .rodata            const      0x20'd4c0    0x10  cpuport.o [1]
  .rodata            const      0x20'd4d0    0x10  device.o [1]
  .rodata            const      0x20'd4e0    0x10  device.o [1]
  .rodata            const      0x20'd4f0    0x10  device.o [1]
  .rodata            const      0x20'd500    0x10  device.o [1]
  .rodata            const      0x20'd510    0x10  device.o [1]
  .rodata            const      0x20'd520    0x10  device.o [1]
  .rodata            const      0x20'd530    0x10  finsh_error.o [1]
  .rodata            const      0x20'd540    0x10  finsh_error.o [1]
  .rodata            const      0x20'd550    0x10  finsh_error.o [1]
  .rodata            const      0x20'd560    0x10  finsh_error.o [1]
  .rodata            const      0x20'd570    0x10  finsh_error.o [1]
  .rodata            const      0x20'd580    0x10  finsh_error.o [1]
  .rodata            const      0x20'd590    0x10  finsh_error.o [1]
  .rodata            const      0x20'd5a0    0x10  finsh_error.o [1]
  .rodata            const      0x20'd5b0    0x10  ipc.o [1]
  .rodata            const      0x20'd5c0    0x10  ipc.o [1]
  .rodata            const      0x20'd5d0    0x10  key.o [1]
  .rodata            const      0x20'd5e0    0x10  key.o [1]
  .rodata            const      0x20'd5f0    0x10  key.o [1]
  .rodata            const      0x20'd600    0x10  LED.o [1]
  .rodata            const      0x20'd610    0x10  LED.o [1]
  .rodata            const      0x20'd620    0x10  mem.o [1]
  .rodata            const      0x20'd630    0x10  msh.o [1]
  .rodata            const      0x20'd640    0x10  object.o [1]
  .rodata            const      0x20'd650    0x10  object.o [1]
  .rodata            const      0x20'd660    0x10  pin.o [1]
  .rodata            const      0x20'd670    0x10  pin.o [1]
  .rodata            const      0x20'd680    0x10  pin.o [1]
  .rodata            const      0x20'd690    0x10  rt_Timer.o [1]
  .rodata            const      0x20'd6a0    0x10  rt_Timer.o [1]
  .rodata            const      0x20'd6b0    0x10  rt_uart.o [1]
  .rodata            const      0x20'd6c0    0x10  serial.o [1]
  .rodata            const      0x20'd6d0    0x10  serial.o [1]
  .rodata            const      0x20'd6e0    0x10  serial.o [1]
  .rodata            const      0x20'd6f0    0x10  serial.o [1]
  .rodata            const      0x20'd700    0x10  serial.o [1]
  .rodata            const      0x20'd710    0x10  serial.o [1]
  .rodata            const      0x20'd720    0x10  serial.o [1]
  .rodata            const      0x20'd730    0x10  serial.o [1]
  .rodata            const      0x20'd740    0x10  serial.o [1]
  .rodata            const      0x20'd750    0x10  serial.o [1]
  .rodata            const      0x20'd760    0x10  serial.o [1]
  .rodata            const      0x20'd770    0x10  shell.o [1]
  .rodata            const      0x20'd780    0x10  shell.o [1]
  .rodata            const      0x20'd790    0x10  shell.o [1]
  .rodata            const      0x20'd7a0    0x10  thread.o [1]
  .rodata            const      0x20'd7b0    0x10  thread.o [1]
  .rodata            const      0x20'd7c0    0x10  thread.o [1]
  .rodata            const      0x20'd7d0    0x10  timer.o [1]
  .rodata            const      0x20'd7e0    0x10  timer.o [1]
  .rodata            const      0x20'd7f0    0x10  timer.o [1]
  .rodata            const      0x20'd800    0x10  timer.o [1]
  .rodata.name       const      0x20'd810    0x10  cmd.o [1]
  .rodata.name       const      0x20'd820    0x10  cmd.o [1]
  .rodata.name       const      0x20'd830    0x10  cmd.o [1]
  .rodata.name       const      0x20'd840    0x10  cmd.o [1]
  .rodata.name       const      0x20'd850    0x10  cmd.o [1]
  .rodata.name       const      0x20'd860    0x10  cmd.o [1]
  .rodata.name       const      0x20'd870    0x10  cmd.o [1]
  .rodata.name       const      0x20'd880    0x10  display.o [1]
  .rodata.name       const      0x20'd890    0x10  key.o [1]
  VSymTab                       0x20'd8a0    0x10  <Block>
    VSymTab          const      0x20'd8a0    0x10  cmd.o [1]
  .rodata            const      0x20'd8b0     0xc  cmd.o [1]
  .rodata            const      0x20'd8bc     0xc  cmd.o [1]
  .rodata            const      0x20'd8c8     0xc  cmd.o [1]
  .rodata            const      0x20'd8d4     0xc  cmd.o [1]
  .rodata            const      0x20'd8e0     0xc  cmd.o [1]
  .rodata            const      0x20'd8ec     0xc  cmd.o [1]
  .rodata            const      0x20'd8f8     0xc  cmd.o [1]
  .rodata            const      0x20'd904     0xc  cmd.o [1]
  .rodata            const      0x20'd910     0xc  cmd.o [1]
  .rodata            const      0x20'd91c     0xc  cmd.o [1]
  .rodata            const      0x20'd928     0xc  cmd.o [1]
  .rodata            const      0x20'd934     0xc  cmd.o [1]
  .rodata            const      0x20'd940     0xc  cpuport.o [1]
  .rodata            const      0x20'd94c     0xc  cpuport.o [1]
  .rodata            const      0x20'd958     0xc  cpuport.o [1]
  .rodata            const      0x20'd964     0xc  cpuport.o [1]
  .rodata            const      0x20'd970     0xc  cpuport.o [1]
  .rodata            const      0x20'd97c     0xc  cpuport.o [1]
  .rodata            const      0x20'd988     0xc  cpuport.o [1]
  .rodata            const      0x20'd994     0xc  cpuport.o [1]
  .rodata            const      0x20'd9a0     0xc  cpuport.o [1]
  .rodata            const      0x20'd9ac     0xc  cpuport.o [1]
  .rodata            const      0x20'd9b8     0xc  cpuport.o [1]
  .rodata            const      0x20'd9c4     0xc  cpuport.o [1]
  .rodata            const      0x20'd9d0     0xc  finsh_error.o [1]
  .rodata            const      0x20'd9dc     0xc  finsh_error.o [1]
  .rodata            const      0x20'd9e8     0xc  finsh_error.o [1]
  .rodata            const      0x20'd9f4     0xc  finsh_token.o [1]
  .rodata            const      0x20'da00     0xc  ipc.o [1]
  .rodata            const      0x20'da0c     0xc  ipc.o [1]
  .rodata            const      0x20'da18     0xc  kservice.o [1]
  .rodata            const      0x20'da24     0xc  kservice.o [1]
  .rodata            const      0x20'da30     0xc  mem.o [1]
  .rodata            const      0x20'da3c     0xc  mem.o [1]
  .rodata            const      0x20'da48     0xc  mem.o [1]
  .rodata            const      0x20'da54     0xc  msh.o [1]
  .rodata            const      0x20'da60     0xc  pin.o [1]
  .rodata            const      0x20'da6c     0xc  pin.o [1]
  .rodata            const      0x20'da78     0xc  pin.o [1]
  .rodata            const      0x20'da84     0xc  pin.o [1]
  .rodata            const      0x20'da90     0xc  rt_Timer.o [1]
  .rodata            const      0x20'da9c     0xc  rt_Timer.o [1]
  .rodata            const      0x20'daa8     0xc  rt_Timer.o [1]
  .rodata            const      0x20'dab4     0xc  rt_uart.o [1]
  .rodata            const      0x20'dac0     0xc  rt_uart.o [1]
  .rodata            const      0x20'dacc     0xc  shell.o [1]
  .rodata.name       const      0x20'dad8     0xc  cmd.o [1]
  .rodata.name       const      0x20'dae4     0xc  cmd.o [1]
  .rodata.name       const      0x20'daf0     0xc  cmd.o [1]
  .rodata.name       const      0x20'dafc     0xc  cmd.o [1]
  .rodata.name       const      0x20'db08     0xc  cmd.o [1]
  .rodata.name       const      0x20'db14     0xc  cmd.o [1]
  .rodata.name       const      0x20'db20     0xc  cmd.o [1]
  .rodata.name       const      0x20'db2c     0xc  cmd.o [1]
  .rodata.name       const      0x20'db38     0xc  mem.o [1]
  .rodata.name       const      0x20'db44     0xc  msh.o [1]
  .rodata.name       const      0x20'db50     0xc  msh.o [1]
  .rodata.name       const      0x20'db5c     0xc  msh_cmd.o [1]
  .rodata.name       const      0x20'db68     0xc  msh_cmd.o [1]
  .rodata.name       const      0x20'db74     0xc  msh_cmd.o [1]
  .rodata.name       const      0x20'db80     0xc  pin.o [1]
  .rodata            const      0x20'db8c     0x8  Application.o [1]
  .rodata            const      0x20'db94     0x8  Application.o [1]
  .rodata            const      0x20'db9c     0x8  Application.o [1]
  .rodata            const      0x20'dba4     0x8  Application.o [1]
  .rodata            const      0x20'dbac     0x8  Application.o [1]
  .rodata            const      0x20'dbb4     0x8  Application.o [1]
  .rodata            const      0x20'dbbc     0x8  Application.o [1]
  .rodata            const      0x20'dbc4     0x8  board.o [1]
  .rodata            const      0x20'dbcc     0x8  cmd.o [1]
  .rodata            const      0x20'dbd4     0x8  cmd.o [1]
  .rodata            const      0x20'dbdc     0x8  cmd.o [1]
  .rodata            const      0x20'dbe4     0x8  cmd.o [1]
  .rodata            const      0x20'dbec     0x8  cmd.o [1]
  .rodata            const      0x20'dbf4     0x8  cmd.o [1]
  .rodata            const      0x20'dbfc     0x8  cmd.o [1]
  .rodata            const      0x20'dc04     0x8  cmd.o [1]
  .rodata            const      0x20'dc0c     0x8  cmd.o [1]
  .rodata            const      0x20'dc14     0x8  cmd.o [1]
  .rodata            const      0x20'dc1c     0x8  cmd.o [1]
  .rodata            const      0x20'dc24     0x8  cmd.o [1]
  .rodata            const      0x20'dc2c     0x8  cmd.o [1]
  .rodata            const      0x20'dc34     0x8  cmd.o [1]
  .rodata            const      0x20'dc3c     0x8  cpuport.o [1]
  .rodata            const      0x20'dc44     0x8  cpuport.o [1]
  .rodata            const      0x20'dc4c     0x8  cpuport.o [1]
  .rodata            const      0x20'dc54     0x8  display.o [1]
  .rodata            const      0x20'dc5c     0x8  display.o [1]
  .rodata            const      0x20'dc64     0x8  finsh_token.o [1]
  .rodata            const      0x20'dc6c     0x8  finsh_token.o [1]
  .rodata            const      0x20'dc74     0x8  finsh_token.o [1]
  .rodata            const      0x20'dc7c     0x8  finsh_token.o [1]
  .rodata            const      0x20'dc84     0x8  finsh_token.o [1]
  .rodata            const      0x20'dc8c     0x8  finsh_token.o [1]
  .rodata            const      0x20'dc94     0x8  idle.o [1]
  .rodata            const      0x20'dc9c     0x8  kservice.o [1]
  .rodata            const      0x20'dca4     0x8  mem.o [1]
  .rodata            const      0x20'dcac     0x8  mem.o [1]
  .rodata            const      0x20'dcb4     0x8  MQTTConnectClient.o [1]
  .rodata            const      0x20'dcbc     0x8  MQTTConnectClient.o [1]
  .rodata            const      0x20'dcc4     0x8  msh.o [1]
  .rodata            const      0x20'dccc     0x8  msh.o [1]
  .rodata            const      0x20'dcd4     0x8  rt_Timer.o [1]
  .rodata            const      0x20'dcdc     0x8  rt_uart.o [1]
  .rodata            const      0x20'dce4     0x8  rt_uart.o [1]
  .rodata            const      0x20'dcec     0x8  shell.o [1]
  .rodata            const      0x20'dcf4     0x8  shell.o [1]
  .rodata            const      0x20'dcfc     0x8  shell.o [1]
  .rodata            const      0x20'dd04     0x8  shell.o [1]
  .rodata            const      0x20'dd0c     0x8  shell.o [1]
  .rodata            const      0x20'dd14     0x8  shell.o [1]
  .rodata            const      0x20'dd1c     0x8  shell.o [1]
  .rodata.name       const      0x20'dd24     0x8  cmd.o [1]
  .rodata.name       const      0x20'dd2c     0x8  cmd.o [1]
  .rodata.name       const      0x20'dd34     0x8  cmd.o [1]
  .rodata.name       const      0x20'dd3c     0x8  cmd.o [1]
  .rodata.name       const      0x20'dd44     0x8  pin.o [1]
  .rodata.name       const      0x20'dd4c     0x8  pin.o [1]
  .rodata            const      0x20'dd54     0x4  cmd.o [1]
  .rodata            const      0x20'dd58     0x4  finsh_token.o [1]
  .rodata            const      0x20'dd5c     0x4  MQTTConnectClient.o [1]
  .rodata            const      0x20'dd60     0x4  MQTTConnectClient.o [1]
  .rodata            const      0x20'dd64     0x4  MQTTSerializePublish.o [1]
  .rodata.name       const      0x20'dd68     0x4  LED.o [1]
  .rodata.name       const      0x20'dd6c     0x4  msh.o [1]
  .rti_fn.0          const      0x20'dd70     0x4  components.o [1]
  .rti_fn.0.end      const      0x20'dd74     0x4  components.o [1]
  .rti_fn.1.end      const      0x20'dd78     0x4  components.o [1]
  .rti_fn.6          const      0x20'dd7c     0x4  key.o [1]
  .rti_fn.6          const      0x20'dd80     0x4  shell.o [1]
  .rti_fn.6.end      const      0x20'dd84     0x4  components.o [1]
  .rodata            const      0x20'dd88     0x0  zero_init3.o [4]
  .rodata            const      0x20'dd88     0x0  lz77_init_single.o [4]
  Initializer bytes  const      0x20'dd88   0x17d  <for P2-1>
                              - 0x20'df05  0xde05

"A1":                                         0xc
  .flashcca          const      0x27'ffd4     0xc  startup_iar.o [1]
                              - 0x27'ffe0     0xc

"A2":                                       0x100
  VTABLE             uninit   0x2000'4000   0x100  interrupt.o [1]
                            - 0x2000'4100   0x100

"P2", part 1 of 3:                          0x3e4
  P2-1                        0x2000'4100   0x3e4  <Init block>
    .data            inited   0x2000'4100    0x1c  Application.o [1]
    .data            inited   0x2000'411c    0x1c  Application.o [1]
    .data            inited   0x2000'4138     0x4  board.o [1]
    .data            inited   0x2000'413c   0x100  CC2538GPIO.o [1]
    .data            inited   0x2000'423c   0x18c  CC2538GPIO.o [1]
    .data            inited   0x2000'43c8    0x3c  finsh_error.o [1]
    .data            inited   0x2000'4404    0x14  key.o [1]
    .data            inited   0x2000'4418     0x4  msh.o [1]
    .data            inited   0x2000'441c    0xa0  object.o [1]
    .data            inited   0x2000'44bc    0x14  rt_Timer.o [1]
    .data            inited   0x2000'44d0    0x14  rt_uart.o [1]
                            - 0x2000'44e4   0x3e4

"P2", part 2 of 3:                          0xa94
  .bss               zero     0x2000'44e4   0x140  finsh_node.o [1]
  .bss               zero     0x2000'4624   0x100  finsh_vm.o [1]
  .bss               zero     0x2000'4724   0x100  idle.o [1]
  .bss               zero     0x2000'4824   0x100  scheduler.o [1]
  .bss               zero     0x2000'4924    0xc0  finsh_var.o [1]
  .bss               zero     0x2000'49e4    0x84  shell.o [1]
  .bss               zero     0x2000'4a68    0x80  finsh_heap.o [1]
  .bss               zero     0x2000'4ae8    0x80  finsh_vm.o [1]
  .bss               zero     0x2000'4b68    0x80  idle.o [1]
  .bss               zero     0x2000'4be8    0x80  kservice.o [1]
  .bss               zero     0x2000'4c68    0x60  rt_Timer.o [1]
  .bss               zero     0x2000'4cc8    0x54  rt_uart.o [1]
  .bss               zero     0x2000'4d1c    0x54  rt_uart.o [1]
  .bss               zero     0x2000'4d70    0x44  pin.o [1]
  .bss               zero     0x2000'4db4    0x20  Application.o [1]
  .bss               zero     0x2000'4dd4    0x20  io_pin_int.o [1]
  .bss               zero     0x2000'4df4    0x20  io_pin_int.o [1]
  .bss               zero     0x2000'4e14    0x20  io_pin_int.o [1]
  .bss               zero     0x2000'4e34    0x20  io_pin_int.o [1]
  .bss               zero     0x2000'4e54    0x20  mem.o [1]
  .bss               zero     0x2000'4e74    0x10  idle.o [1]
  .bss               zero     0x2000'4e84     0x8  scheduler.o [1]
  .bss               zero     0x2000'4e8c     0x8  timer.o [1]
  .bss               zero     0x2000'4e94     0x4  Application.o [1]
  .bss               zero     0x2000'4e98     0x4  Application.o [1]
  .bss               zero     0x2000'4e9c     0x4  clock.o [1]
  .bss               zero     0x2000'4ea0     0x4  cmd.o [1]
  .bss               zero     0x2000'4ea4     0x4  cpuport.o [1]
  .bss               zero     0x2000'4ea8     0x4  cpuport.o [1]
  .bss               zero     0x2000'4eac     0x4  cpuport.o [1]
  .bss               zero     0x2000'4eb0     0x4  cpuport.o [1]
  .bss               zero     0x2000'4eb4     0x4  finsh_compiler.o [1]
  .bss               zero     0x2000'4eb8     0x4  finsh_compiler.o [1]
  .bss               zero     0x2000'4ebc     0x4  finsh_heap.o [1]
  .bss               zero     0x2000'4ec0     0x4  finsh_heap.o [1]
  .bss               zero     0x2000'4ec4     0x4  finsh_var.o [1]
  .bss               zero     0x2000'4ec8     0x4  finsh_vm.o [1]
  .bss               zero     0x2000'4ecc     0x4  finsh_vm.o [1]
  .bss               zero     0x2000'4ed0     0x4  finsh_vm.o [1]
  .bss               zero     0x2000'4ed4     0x4  io_pin_int.o [1]
  .bss               zero     0x2000'4ed8     0x4  io_pin_int.o [1]
  .bss               zero     0x2000'4edc     0x4  io_pin_int.o [1]
  .bss               zero     0x2000'4ee0     0x4  io_pin_int.o [1]
  .bss               zero     0x2000'4ee4     0x4  irq.o [1]
  .bss               zero     0x2000'4ee8     0x4  irq.o [1]
  .bss               zero     0x2000'4eec     0x4  kservice.o [1]
  .bss               zero     0x2000'4ef0     0x4  kservice.o [1]
  .bss               zero     0x2000'4ef4     0x4  kservice.o [1]
  .bss               zero     0x2000'4ef8     0x4  mem.o [1]
  .bss               zero     0x2000'4efc     0x4  mem.o [1]
  .bss               zero     0x2000'4f00     0x4  mem.o [1]
  .bss               zero     0x2000'4f04     0x4  mem.o [1]
  .bss               zero     0x2000'4f08     0x4  mem.o [1]
  .bss               zero     0x2000'4f0c     0x4  mem.o [1]
  .bss               zero     0x2000'4f10     0x4  mem.o [1]
  .bss               zero     0x2000'4f14     0x4  mem.o [1]
  .bss               zero     0x2000'4f18     0x4  object.o [1]
  .bss               zero     0x2000'4f1c     0x4  object.o [1]
  .bss               zero     0x2000'4f20     0x4  object.o [1]
  .bss               zero     0x2000'4f24     0x4  object.o [1]
  .bss               zero     0x2000'4f28     0x4  object.o [1]
  .bss               zero     0x2000'4f2c     0x4  rt_Timer.o [1]
  .bss               zero     0x2000'4f30     0x4  rt_Timer.o [1]
  .bss               zero     0x2000'4f34     0x4  scheduler.o [1]
  .bss               zero     0x2000'4f38     0x4  scheduler.o [1]
  .bss               zero     0x2000'4f3c     0x4  scheduler.o [1]
  .bss               zero     0x2000'4f40     0x4  shell.o [1]
  .bss               zero     0x2000'4f44     0x4  shell.o [1]
  .bss               zero     0x2000'4f48     0x4  symbol.o [1]
  .bss               zero     0x2000'4f4c     0x4  symbol.o [1]
  .bss               zero     0x2000'4f50     0x4  symbol.o [1]
  .bss               zero     0x2000'4f54     0x4  symbol.o [1]
  .bss               zero     0x2000'4f58     0x4  thread.o [1]
  .bss               zero     0x2000'4f5c     0x4  thread.o [1]
  .bss               zero     0x2000'4f60     0x4  thread.o [1]
  .bss               zero     0x2000'4f64     0x4  timer.o [1]
  .bss               zero     0x2000'4f68     0x4  timer.o [1]
  .bss               zero     0x2000'4f6c     0x4  timer.o [1]
  .bss               zero     0x2000'4f70     0x2  scheduler.o [1]
  .bss               zero     0x2000'4f72     0x1  Application.o [1]
  .bss               zero     0x2000'4f73     0x1  finsh_error.o [1]
  .bss               zero     0x2000'4f74     0x1  irq.o [1]
  .bss               zero     0x2000'4f75     0x1  key.o [1]
  .bss               zero     0x2000'4f76     0x1  LED.o [1]
  .bss               zero     0x2000'4f77     0x1  scheduler.o [1]
                            - 0x2000'4f78   0xa94

"P2", part 3 of 3:                         0x1000
  HEAP                        0x2000'4f78  0x1000  <Block>
    HEAP             uninit   0x2000'4f78  0x1000  <Block tail>
                            - 0x2000'5f78  0x1000

"A3":                                       0x800
  CSTACK                      0x2000'7800   0x800  <Block>
    .stack           uninit   0x2000'7800     0x4  startup_iar.o [1]
    CSTACK           uninit   0x2000'7804   0x7fc  <Block tail>
                            - 0x2000'8000   0x800

Unused ranges:

         From           To      Size
         ----           --      ----
    0x20'df05    0x27'ffd3  0x7'20cf
  0x2000'5f78  0x2000'77ff    0x1888


*******************************************************************************
*** INIT TABLE
***

          Address      Size
          -------      ----
Zero (__iar_zero_init3)
    1 destination range, total size 0xa94:
          0x2000'44e4  0xa94

Copy/lz77 (__iar_lz77_init_single3)
    1 source range, total size 0x17d (38% of destination):
            0x20'dd88  0x17d
    1 destination range, total size 0x3e4:
          0x2000'4100  0x3e4



*******************************************************************************
*** MODULE SUMMARY
***

    Module                  ro code  ro data  rw data
    ------                  -------  -------  -------
command line/config:
    -------------------------------------------------
    Total:

D:\CC2338_RTThread\cc2538_MQTT\cc2538--mqtt\Debug\Obj: [1]
    Application.o               556      357       97
    CC2538GPIO.o                772      274      652
    CC2538cpu.o                  16
    LED.o                       392      124        1
    MQTTConnectClient.o         500       24
    MQTTPacket.o                264
    MQTTSerializePublish.o      200        4
    board.o                     188        9        4
    clock.o                     104                 4
    cmd.o                     2 644    3 144        4
    completion.o                376      172
    components.o                 44       16
    context_iar.o               252
    cpuport.o                   832      680       16
    debug.o                       2
    device.o                    812      304
    display.o                   236      232
    finsh_compiler.o          4 736                 8
    finsh_error.o                44      267       61
    finsh_heap.o                534               136
    finsh_init.o                 54
    finsh_node.o                388               320
    finsh_ops.o               2 140      196
    finsh_parser.o            2 476
    finsh_token.o             1 678      128
    finsh_var.o                 292               196
    finsh_vm.o                  156               396
    gpio.o                    1 028       64
    gptimer.o                   840       68
    hwtimer.o                 1 172       96
    idle.o                      308       72      400
    interrupt.o                 296       92      256
    io_pin_int.o              1 252               144
    ioc.o                     1 232      320
    ipc.o                       692      244
    irq.o                        92                 9
    key.o                       352      139       21
    kservice.o                1 926      496      140
    mem.o                     1 344      876       64
    msh.o                       804      270        4
    msh_cmd.o                    24      168
    object.o                    632      329      180
    pin.o                       500      308       68
    rt_Timer.o                  476      104      124
    rt_uart.o                   712      104      188
    scheduler.o                 632      192      279
    serial.o                  1 580      300
    shell.o                   2 628      332      140
    startup_iar.o                62      268        4
    strart_rtt.o                 66
    symbol.o                                       16
    sys_ctrl.o                  536       92
    thread.o                  1 244      392       12
    timer.o                   1 014      244       20
    uart.o                      828       64
    -------------------------------------------------
    Total:                   42 960   11 565    3 964

dl7M_tln.a: [2]
    exit.o                        4
    iar_Stoulx.o                336       80
    low_level_init.o              4
    strcat.o                     30
    strncmp.o                    40
    -------------------------------------------------
    Total:                      414       80

m7M_tl.a: [3]
    FltAdd.o                    226
    FltCmpEq.o                   28
    FltCmpGe.o                   36
    FltCmpLe.o                   36
    FltDiv.o                    252
    FltMul.o                    216
    FltSub.o                    128
    FltToS32.o                   42
    FltToU32.o                   34
    S32ToFlt.o                   36
    U32ToFlt.o                   28
    -------------------------------------------------
    Total:                    1 062

rt7M_tl.a: [4]
    ABImemcpy.o                 166
    ABImemset.o                 102
    cexit.o                      10
    cmain.o                      30
    cstartup_M.o                 12
    data_init.o                  40
    lz77_init_single.o          122
    memchr.o                     88
    memcmp.o                    104
    strcmp.o                     18
    strcpy.o                     24
    strlen.o                     54
    strncpy.o                   112
    zero_init3.o                 58
    -------------------------------------------------
    Total:                      940

shb_l.a: [5]
    exit.o                       20
    -------------------------------------------------
    Total:                       20

    Gaps                         30        2
    Linker created                        32    6 140
-----------------------------------------------------
    Grand Total:             45 426   11 679   10 104


*******************************************************************************
*** ENTRY LIST
***

Entry                       Address    Size  Type      Object
-----                       -------    ----  ----      ------
.iar.init_table$$Base     0x20'c24c           --   Gb  - Linker created -
.iar.init_table$$Limit    0x20'c26c           --   Gb  - Linker created -
?main                     0x20'ba39          Code  Gb  cmain.o [4]
CPUcpsid                  0x20'85a1     0x8  Code  Gb  CC2538cpu.o [1]
CPUcpsie                  0x20'85a9     0x8  Code  Gb  CC2538cpu.o [1]
CSTACK$$Base            0x2000'7800           --   Gb  - Linker created -
CSTACK$$Limit           0x2000'8000           --   Gb  - Linker created -
ESP8266_Data            0x2000'4100    0x1c  Data  Gb  Application.o [1]
ESP8266_Data_Length     0x2000'411c    0x1c  Data  Gb  Application.o [1]
FSymTab$$Base             0x20'ad20           --   Gb  - Linker created -
FSymTab$$Limit            0x20'aedc           --   Gb  - Linker created -
FaultISR                  0x20'ba27     0x2  Code  Lc  startup_iar.o [1]
GPIOBaseValid             0x20'819d    0x2a  Code  Lc  gpio.o [1]
GPIODirModeSet            0x20'8215    0x7c  Code  Gb  gpio.o [1]
GPIOGetIntNumber          0x20'81c7    0x4e  Code  Gb  gpio.o [1]
GPIOIntTypeSet            0x20'8291    0xae  Code  Gb  gpio.o [1]
GPIOPinIntClear           0x20'83cf    0x26  Code  Gb  gpio.o [1]
GPIOPinIntDisable         0x20'836d    0x30  Code  Gb  gpio.o [1]
GPIOPinIntEnable          0x20'833f    0x2e  Code  Gb  gpio.o [1]
GPIOPinIntStatus          0x20'839d    0x32  Code  Gb  gpio.o [1]
GPIOPinRead               0x20'8429    0x26  Code  Gb  gpio.o [1]
GPIOPinTypeGPIOInput      0x20'8479    0x36  Code  Gb  gpio.o [1]
GPIOPinTypeGPIOOutput     0x20'84af    0x36  Code  Gb  gpio.o [1]
GPIOPinTypeUARTInput      0x20'84e5    0x56  Code  Gb  gpio.o [1]
GPIOPinTypeUARTOutput     0x20'853b    0x50  Code  Gb  gpio.o [1]
GPIOPinWrite              0x20'844f    0x2a  Code  Gb  gpio.o [1]
GPIOPortIntRegister       0x20'83f5    0x34  Code  Gb  gpio.o [1]
GPIO_Init                 0x20'99c9    0x44  Code  Gb  CC2538GPIO.o [1]
HEAP$$Base              0x2000'4f78           --   Gb  - Linker created -
HEAP$$Limit             0x2000'5f78           --   Gb  - Linker created -
HardFault_Handler         0x20'3607          Code  Gb  context_iar.o [1]
HardFault_Handler         0x20'ba29     0x2  Code  Lc  startup_iar.o [1]
IOCPadConfigSet           0x20'8907    0xee  Code  Gb  ioc.o [1]
IOCPinConfigPeriphInput
                          0x20'8669   0x29e  Code  Gb  ioc.o [1]
IOCPinConfigPeriphOutput
                          0x20'85b5    0xb4  Code  Gb  ioc.o [1]
IntAltMapIsEnabled        0x20'816d    0x10  Code  Gb  interrupt.o [1]
IntEnable                 0x20'80fd    0x70  Code  Gb  interrupt.o [1]
IntMasterDisable          0x20'8089    0x14  Code  Gb  interrupt.o [1]
IntMasterEnable           0x20'8075    0x14  Code  Gb  interrupt.o [1]
IntRegister               0x20'809d    0x60  Code  Gb  interrupt.o [1]
MQTTPacket_encode         0x20'aa3d    0x2a  Code  Gb  MQTTPacket.o [1]
MQTTPacket_len            0x20'aa67    0x24  Code  Gb  MQTTPacket.o [1]
MQTTSerialize_connect     0x20'a8c9   0x162  Code  Gb  MQTTConnectClient.o [1]
MQTTSerialize_connectLength
                          0x20'a849    0x80  Code  Gb  MQTTConnectClient.o [1]
MQTTSerialize_publish     0x20'a7a3    0xa2  Code  Gb  MQTTSerializePublish.o [1]
MQTTSerialize_publishLength
                          0x20'a781    0x22  Code  Gb  MQTTSerializePublish.o [1]
MQTTstrlen                0x20'ab2d    0x14  Code  Gb  MQTTPacket.o [1]
NmiISR                    0x20'ba25     0x2  Code  Lc  startup_iar.o [1]
OP_add_byte               0x20'6b93    0x20  Code  Gb  finsh_ops.o [1]
OP_add_dword              0x20'6bd3    0x20  Code  Gb  finsh_ops.o [1]
OP_add_word               0x20'6bb3    0x20  Code  Gb  finsh_ops.o [1]
OP_and_byte               0x20'6d8b    0x20  Code  Gb  finsh_ops.o [1]
OP_and_dword              0x20'6dcb    0x20  Code  Gb  finsh_ops.o [1]
OP_and_word               0x20'6dab    0x20  Code  Gb  finsh_ops.o [1]
OP_bw_byte                0x20'6eab    0x14  Code  Gb  finsh_ops.o [1]
OP_bw_dword               0x20'6ed3    0x14  Code  Gb  finsh_ops.o [1]
OP_bw_word                0x20'6ebf    0x14  Code  Gb  finsh_ops.o [1]
OP_call                   0x20'714d   0x298  Code  Gb  finsh_ops.o [1]
OP_div_byte               0x20'6c53    0x22  Code  Gb  finsh_ops.o [1]
OP_div_dword              0x20'6c97    0x22  Code  Gb  finsh_ops.o [1]
OP_div_word               0x20'6c75    0x22  Code  Gb  finsh_ops.o [1]
OP_ld_byte                0x20'6fa7    0x1e  Code  Gb  finsh_ops.o [1]
OP_ld_dword               0x20'6feb    0x36  Code  Gb  finsh_ops.o [1]
OP_ld_value_byte          0x20'7021    0x38  Code  Gb  finsh_ops.o [1]
OP_ld_value_byte_stack    0x20'7059    0x14  Code  Gb  finsh_ops.o [1]
OP_ld_value_dword         0x20'70b5    0x34  Code  Gb  finsh_ops.o [1]
OP_ld_value_dword_stack
                          0x20'70e9    0x12  Code  Gb  finsh_ops.o [1]
OP_ld_value_word          0x20'706d    0x36  Code  Gb  finsh_ops.o [1]
OP_ld_value_word_stack    0x20'70a3    0x12  Code  Gb  finsh_ops.o [1]
OP_ld_word                0x20'6fc5    0x26  Code  Gb  finsh_ops.o [1]
OP_mod_byte               0x20'6cb9    0x26  Code  Gb  finsh_ops.o [1]
OP_mod_dword              0x20'6d05    0x26  Code  Gb  finsh_ops.o [1]
OP_mod_word               0x20'6cdf    0x26  Code  Gb  finsh_ops.o [1]
OP_mul_byte               0x20'6d2b    0x20  Code  Gb  finsh_ops.o [1]
OP_mul_dword              0x20'6d6b    0x20  Code  Gb  finsh_ops.o [1]
OP_mul_word               0x20'6d4b    0x20  Code  Gb  finsh_ops.o [1]
OP_no_op                  0x20'6b91     0x2  Code  Gb  finsh_ops.o [1]
OP_or_byte                0x20'6deb    0x20  Code  Gb  finsh_ops.o [1]
OP_or_dword               0x20'6e2b    0x20  Code  Gb  finsh_ops.o [1]
OP_or_word                0x20'6e0b    0x20  Code  Gb  finsh_ops.o [1]
OP_pop                    0x20'7143     0xa  Code  Gb  finsh_ops.o [1]
OP_shl_byte               0x20'6ee7    0x20  Code  Gb  finsh_ops.o [1]
OP_shl_dword              0x20'6f27    0x20  Code  Gb  finsh_ops.o [1]
OP_shl_word               0x20'6f07    0x20  Code  Gb  finsh_ops.o [1]
OP_shr_byte               0x20'6f47    0x20  Code  Gb  finsh_ops.o [1]
OP_shr_dword              0x20'6f87    0x20  Code  Gb  finsh_ops.o [1]
OP_shr_word               0x20'6f67    0x20  Code  Gb  finsh_ops.o [1]
OP_st_byte                0x20'70fb    0x18  Code  Gb  finsh_ops.o [1]
OP_st_dword               0x20'712b    0x18  Code  Gb  finsh_ops.o [1]
OP_st_word                0x20'7113    0x18  Code  Gb  finsh_ops.o [1]
OP_sub_byte               0x20'6bf3    0x20  Code  Gb  finsh_ops.o [1]
OP_sub_dword              0x20'6c33    0x20  Code  Gb  finsh_ops.o [1]
OP_sub_word               0x20'6c13    0x20  Code  Gb  finsh_ops.o [1]
OP_xor_byte               0x20'6e4b    0x20  Code  Gb  finsh_ops.o [1]
OP_xor_dword              0x20'6e8b    0x20  Code  Gb  finsh_ops.o [1]
OP_xor_word               0x20'6e6b    0x20  Code  Gb  finsh_ops.o [1]
PendSV_Handler            0x20'3591          Code  Gb  context_iar.o [1]
Region$$Table$$Base       0x20'c24c           --   Gb  - Linker created -
Region$$Table$$Limit      0x20'c26c           --   Gb  - Linker created -
ResetISR                  0x20'b9ed    0x26  Code  Lc  startup_iar.o [1]
SPI_595                   0x20'af17    0x54  Code  Gb  key.o [1]
STACK_TOP {Abs}         0x2000'8000          Data  Gb  <internal module>
SysCtrlClockGet           0x20'9dd3    0x58  Code  Gb  sys_ctrl.o [1]
SysCtrlClockSet           0x20'9d1d    0xb6  Code  Gb  sys_ctrl.o [1]
SysCtrlDelay              0x20'9e6d     0x8  Code  Gb  sys_ctrl.o [1]
SysCtrlIOClockSet         0x20'9e2b    0x42  Code  Gb  sys_ctrl.o [1]
SysCtrlPeripheralEnable
                          0x20'9e75    0x3c  Code  Gb  sys_ctrl.o [1]
SysCtrlPeripheralValid    0x20'9ccd    0x50  Code  Lc  sys_ctrl.o [1]
SysTick_Config            0x20'b421    0x24  Code  Lc  board.o [1]
SysTick_Handler           0x20'b445    0x10  Code  Gb  board.o [1]
SystemCoreClock         0x2000'4138     0x4  Data  Gb  board.o [1]
Tab                     0x2000'4404    0x14  Data  Gb  key.o [1]
Timer0BIntHandler         0x20'ac2b    0x32  Code  Gb  rt_Timer.o [1]
TimerBaseValid            0x20'9345    0x2a  Code  Lc  gptimer.o [1]
TimerConfigure            0x20'9405   0x116  Code  Gb  gptimer.o [1]
TimerDisable              0x20'93b9    0x4c  Code  Gb  gptimer.o [1]
TimerEnable               0x20'936f    0x4a  Code  Gb  gptimer.o [1]
TimerIntClear             0x20'9653    0x20  Code  Gb  gptimer.o [1]
TimerIntEnable            0x20'962b    0x28  Code  Gb  gptimer.o [1]
TimerIntRegister          0x20'95a9    0x82  Code  Gb  gptimer.o [1]
TimerLoadGet              0x20'956b    0x3e  Code  Gb  gptimer.o [1]
TimerLoadSet              0x20'951b    0x50  Code  Gb  gptimer.o [1]
UARTBaseValid             0x20'968d    0x1a  Code  Lc  uart.o [1]
UARTCharGetNonBlocking    0x20'9857    0x2e  Code  Gb  uart.o [1]
UARTCharPut               0x20'9885    0x2c  Code  Gb  uart.o [1]
UARTClockSourceSet        0x20'9985    0x34  Code  Gb  uart.o [1]
UARTConfigSetExpClk       0x20'9707    0x8c  Code  Gb  uart.o [1]
UARTDisable               0x20'97cf    0x46  Code  Gb  uart.o [1]
UARTEnable                0x20'9793    0x3c  Code  Gb  uart.o [1]
UARTFIFOLevelSet          0x20'96a7    0x60  Code  Gb  uart.o [1]
UARTIntClear              0x20'9965    0x20  Code  Gb  uart.o [1]
UARTIntDisable            0x20'990f    0x2a  Code  Gb  uart.o [1]
UARTIntEnable             0x20'98e7    0x28  Code  Gb  uart.o [1]
UARTIntRegister           0x20'98b1    0x36  Code  Gb  uart.o [1]
UARTIntStatus             0x20'9939    0x2c  Code  Gb  uart.o [1]
UARTTxIntModeSet          0x20'9815    0x42  Code  Gb  uart.o [1]
VSymTab$$Base             0x20'd8a0           --   Gb  - Linker created -
VSymTab$$Limit            0x20'd8b0           --   Gb  - Linker created -
__aeabi_cfcmpeq           0x20'915d          Code  Gb  FltCmpEq.o [3]
__aeabi_cfcmple           0x20'9139          Code  Gb  FltCmpLe.o [3]
__aeabi_cfrcmple          0x20'9179          Code  Gb  FltCmpGe.o [3]
__aeabi_f2iz              0x20'9319          Code  Gb  FltToS32.o [3]
__aeabi_f2uiz             0x20'9275          Code  Gb  FltToU32.o [3]
__aeabi_fadd              0x20'9055          Code  Gb  FltAdd.o [3]
__aeabi_fdiv              0x20'8f59          Code  Gb  FltDiv.o [3]
__aeabi_fmul              0x20'919d          Code  Gb  FltMul.o [3]
__aeabi_fsub              0x20'9299          Code  Gb  FltSub.o [3]
__aeabi_i2f               0x20'8f35          Code  Gb  S32ToFlt.o [3]
__aeabi_memcpy            0x20'2bf9          Code  Gb  ABImemcpy.o [4]
__aeabi_memcpy4           0x20'2c19          Code  Gb  ABImemcpy.o [4]
__aeabi_memcpy8           0x20'2c19          Code  Gb  ABImemcpy.o [4]
__aeabi_memset            0x20'13ad          Code  Gb  ABImemset.o [4]
__aeabi_ui2f              0x20'8f19          Code  Gb  U32ToFlt.o [3]
__cca                     0x27'ffd4     0xc  Data  Gb  startup_iar.o [1]
__cmain                   0x20'ba39          Code  Gb  cmain.o [4]
__error__                 0x20'85b1     0x2  Code  Gb  debug.o [1]
__exit                    0x20'ba95    0x14  Code  Gb  exit.o [5]
__fsym___cmd_exit         0x20'ae70     0xc  Data  Gb  msh.o [1]
__fsym___cmd_exit_desc    0x20'c50c    0x20  Data  Gb  msh.o [1]
__fsym___cmd_exit_name    0x20'db44     0xc  Data  Gb  msh.o [1]
__fsym___cmd_free         0x20'aeac     0xc  Data  Gb  msh_cmd.o [1]
__fsym___cmd_free_desc    0x20'c074    0x28  Data  Gb  msh_cmd.o [1]
__fsym___cmd_free_name    0x20'db74     0xc  Data  Gb  msh_cmd.o [1]
__fsym___cmd_help         0x20'ae88     0xc  Data  Gb  msh.o [1]
__fsym___cmd_help_desc    0x20'ccd8    0x18  Data  Gb  msh.o [1]
__fsym___cmd_help_name    0x20'db50     0xc  Data  Gb  msh.o [1]
__fsym___cmd_hwtimer_sample
                          0x20'ae40     0xc  Data  Gb  display.o [1]
__fsym___cmd_hwtimer_sample_desc
                          0x20'd880    0x10  Data  Gb  display.o [1]
__fsym___cmd_hwtimer_sample_name
                          0x20'cca8    0x18  Data  Gb  display.o [1]
__fsym___cmd_list_device
                          0x20'ae28     0xc  Data  Gb  cmd.o [1]
__fsym___cmd_list_device_desc
                          0x20'cc90    0x18  Data  Gb  cmd.o [1]
__fsym___cmd_list_device_name
                          0x20'd248    0x14  Data  Gb  cmd.o [1]
__fsym___cmd_list_event
                          0x20'ad80     0xc  Data  Gb  cmd.o [1]
__fsym___cmd_list_event_desc
                          0x20'cbd0    0x18  Data  Gb  cmd.o [1]
__fsym___cmd_list_event_name
                          0x20'd1bc    0x14  Data  Gb  cmd.o [1]
__fsym___cmd_list_mailbox
                          0x20'adb0     0xc  Data  Gb  cmd.o [1]
__fsym___cmd_list_mailbox_desc
                          0x20'cc30    0x18  Data  Gb  cmd.o [1]
__fsym___cmd_list_mailbox_name
                          0x20'd1e4    0x14  Data  Gb  cmd.o [1]
__fsym___cmd_list_memheap
                          0x20'ade0     0xc  Data  Gb  cmd.o [1]
__fsym___cmd_list_memheap_desc
                          0x20'c808    0x1c  Data  Gb  cmd.o [1]
__fsym___cmd_list_memheap_name
                          0x20'd20c    0x14  Data  Gb  cmd.o [1]
__fsym___cmd_list_mempool
                          0x20'adf8     0xc  Data  Gb  cmd.o [1]
__fsym___cmd_list_mempool_desc
                          0x20'c840    0x1c  Data  Gb  cmd.o [1]
__fsym___cmd_list_mempool_name
                          0x20'd220    0x14  Data  Gb  cmd.o [1]
__fsym___cmd_list_msgqueue
                          0x20'adc8     0xc  Data  Gb  cmd.o [1]
__fsym___cmd_list_msgqueue_desc
                          0x20'c4ac    0x20  Data  Gb  cmd.o [1]
__fsym___cmd_list_msgqueue_name
                          0x20'd1f8    0x14  Data  Gb  cmd.o [1]
__fsym___cmd_list_mutex
                          0x20'ad98     0xc  Data  Gb  cmd.o [1]
__fsym___cmd_list_mutex_desc
                          0x20'cc00    0x18  Data  Gb  cmd.o [1]
__fsym___cmd_list_mutex_name
                          0x20'd1d0    0x14  Data  Gb  cmd.o [1]
__fsym___cmd_list_sem     0x20'ad68     0xc  Data  Gb  cmd.o [1]
__fsym___cmd_list_sem_desc
                          0x20'c7d0    0x1c  Data  Gb  cmd.o [1]
__fsym___cmd_list_sem_name
                          0x20'd830    0x10  Data  Gb  cmd.o [1]
__fsym___cmd_list_thread
                          0x20'ad50     0xc  Data  Gb  cmd.o [1]
__fsym___cmd_list_thread_desc
                          0x20'daf0     0xc  Data  Gb  cmd.o [1]
__fsym___cmd_list_thread_name
                          0x20'd1a8    0x14  Data  Gb  cmd.o [1]
__fsym___cmd_list_timer
                          0x20'ae10     0xc  Data  Gb  cmd.o [1]
__fsym___cmd_list_timer_desc
                          0x20'cc60    0x18  Data  Gb  cmd.o [1]
__fsym___cmd_list_timer_name
                          0x20'd234    0x14  Data  Gb  cmd.o [1]
__fsym___cmd_pin_beep_sample
                          0x20'ae4c     0xc  Data  Gb  key.o [1]
__fsym___cmd_pin_beep_sample_desc
                          0x20'd890    0x10  Data  Gb  key.o [1]
__fsym___cmd_pin_beep_sample_name
                          0x20'ccc0    0x18  Data  Gb  key.o [1]
__fsym___cmd_ps           0x20'ae94     0xc  Data  Gb  msh_cmd.o [1]
__fsym___cmd_ps_desc      0x20'c894    0x1c  Data  Gb  msh_cmd.o [1]
__fsym___cmd_ps_name      0x20'db5c     0xc  Data  Gb  msh_cmd.o [1]
__fsym___cmd_time         0x20'aea0     0xc  Data  Gb  msh_cmd.o [1]
__fsym___cmd_time_desc    0x20'c8b0    0x1c  Data  Gb  msh_cmd.o [1]
__fsym___cmd_time_name    0x20'db68     0xc  Data  Gb  msh_cmd.o [1]
__fsym___cmd_version      0x20'ad38     0xc  Data  Gb  cmd.o [1]
__fsym___cmd_version_desc
                          0x20'c228    0x24  Data  Gb  cmd.o [1]
__fsym___cmd_version_name
                          0x20'd820    0x10  Data  Gb  cmd.o [1]
__fsym_hello              0x20'ad20     0xc  Data  Gb  cmd.o [1]
__fsym_hello_desc         0x20'd810    0x10  Data  Gb  cmd.o [1]
__fsym_hello_name         0x20'dd24     0x8  Data  Gb  cmd.o [1]
__fsym_led                0x20'ae58     0xc  Data  Gb  LED.o [1]
__fsym_led_desc           0x20'c4cc    0x20  Data  Gb  LED.o [1]
__fsym_led_name           0x20'dd68     0x4  Data  Gb  LED.o [1]
__fsym_list               0x20'ae34     0xc  Data  Gb  cmd.o [1]
__fsym_list_desc          0x20'c85c    0x1c  Data  Gb  cmd.o [1]
__fsym_list_device        0x20'ae1c     0xc  Data  Gb  cmd.o [1]
__fsym_list_device_desc
                          0x20'cc78    0x18  Data  Gb  cmd.o [1]
__fsym_list_device_name
                          0x20'db2c     0xc  Data  Gb  cmd.o [1]
__fsym_list_event         0x20'ad74     0xc  Data  Gb  cmd.o [1]
__fsym_list_event_desc    0x20'cbb8    0x18  Data  Gb  cmd.o [1]
__fsym_list_event_name    0x20'db08     0xc  Data  Gb  cmd.o [1]
__fsym_list_mailbox       0x20'ada4     0xc  Data  Gb  cmd.o [1]
__fsym_list_mailbox_desc
                          0x20'cc18    0x18  Data  Gb  cmd.o [1]
__fsym_list_mailbox_name
                          0x20'd840    0x10  Data  Gb  cmd.o [1]
__fsym_list_mem           0x20'ae64     0xc  Data  Gb  mem.o [1]
__fsym_list_mem_desc      0x20'c4ec    0x20  Data  Gb  mem.o [1]
__fsym_list_mem_name      0x20'db38     0xc  Data  Gb  mem.o [1]
__fsym_list_memheap       0x20'add4     0xc  Data  Gb  cmd.o [1]
__fsym_list_memheap_desc
                          0x20'c7ec    0x1c  Data  Gb  cmd.o [1]
__fsym_list_memheap_name
                          0x20'd860    0x10  Data  Gb  cmd.o [1]
__fsym_list_mempool       0x20'adec     0xc  Data  Gb  cmd.o [1]
__fsym_list_mempool_desc
                          0x20'c824    0x1c  Data  Gb  cmd.o [1]
__fsym_list_mempool_name
                          0x20'd870    0x10  Data  Gb  cmd.o [1]
__fsym_list_msgqueue      0x20'adbc     0xc  Data  Gb  cmd.o [1]
__fsym_list_msgqueue_desc
                          0x20'c48c    0x20  Data  Gb  cmd.o [1]
__fsym_list_msgqueue_name
                          0x20'd850    0x10  Data  Gb  cmd.o [1]
__fsym_list_mutex         0x20'ad8c     0xc  Data  Gb  cmd.o [1]
__fsym_list_mutex_desc    0x20'cbe8    0x18  Data  Gb  cmd.o [1]
__fsym_list_mutex_name    0x20'db14     0xc  Data  Gb  cmd.o [1]
__fsym_list_name          0x20'dd34     0x8  Data  Gb  cmd.o [1]
__fsym_list_sem           0x20'ad5c     0xc  Data  Gb  cmd.o [1]
__fsym_list_sem_desc      0x20'c7b4    0x1c  Data  Gb  cmd.o [1]
__fsym_list_sem_name      0x20'dafc     0xc  Data  Gb  cmd.o [1]
__fsym_list_thread        0x20'ad44     0xc  Data  Gb  cmd.o [1]
__fsym_list_thread_desc
                          0x20'dae4     0xc  Data  Gb  cmd.o [1]
__fsym_list_thread_name
                          0x20'dad8     0xc  Data  Gb  cmd.o [1]
__fsym_list_timer         0x20'ae04     0xc  Data  Gb  cmd.o [1]
__fsym_list_timer_desc    0x20'cc48    0x18  Data  Gb  cmd.o [1]
__fsym_list_timer_name    0x20'db20     0xc  Data  Gb  cmd.o [1]
__fsym_msh                0x20'ae7c     0xc  Data  Gb  msh.o [1]
__fsym_msh_desc           0x20'd25c    0x14  Data  Gb  msh.o [1]
__fsym_msh_name           0x20'dd6c     0x4  Data  Gb  msh.o [1]
__fsym_pinMode            0x20'aeb8     0xc  Data  Gb  pin.o [1]
__fsym_pinMode_desc       0x20'ccf0    0x18  Data  Gb  pin.o [1]
__fsym_pinMode_name       0x20'dd44     0x8  Data  Gb  pin.o [1]
__fsym_pinRead            0x20'aed0     0xc  Data  Gb  pin.o [1]
__fsym_pinRead_desc       0x20'c52c    0x20  Data  Gb  pin.o [1]
__fsym_pinRead_name       0x20'dd4c     0x8  Data  Gb  pin.o [1]
__fsym_pinWrite           0x20'aec4     0xc  Data  Gb  pin.o [1]
__fsym_pinWrite_desc      0x20'c8cc    0x1c  Data  Gb  pin.o [1]
__fsym_pinWrite_name      0x20'db80     0xc  Data  Gb  pin.o [1]
__fsym_version            0x20'ad2c     0xc  Data  Gb  cmd.o [1]
__fsym_version_desc       0x20'c204    0x24  Data  Gb  cmd.o [1]
__fsym_version_name       0x20'dd2c     0x8  Data  Gb  cmd.o [1]
__iar_Memchr              0x20'6b39          Code  Gb  memchr.o [4]
__iar_Memset              0x20'13ad          Code  Gb  ABImemset.o [4]
__iar_Memset_word         0x20'13b5          Code  Gb  ABImemset.o [4]
__iar_Stoulx              0x20'69e9   0x13e  Code  Gb  iar_Stoulx.o [2]
__iar_data_init3          0x20'ba5d    0x28  Code  Gb  data_init.o [4]
__iar_fadd                0x20'92a5          Code  Gb  FltSub.o [3]
__iar_fsub                0x20'9061          Code  Gb  FltAdd.o [3]
__iar_fsubStart           0x20'9071          Code  Gb  FltAdd.o [3]
__iar_lz77_init_single3
                          0x20'1413    0x7a  Code  Gb  lz77_init_single.o [4]
__iar_program_start       0x20'ba2b          Code  Gb  cstartup_M.o [4]
__iar_zero_init3          0x20'2667    0x3a  Code  Gb  zero_init3.o [4]
__low_level_init          0x20'ba57     0x4  Code  Gb  low_level_init.o [2]
__lowest_bit_bitmap       0x20'b170   0x100  Data  Gb  kservice.o [1]
__msh_state             0x2000'4418     0x4  Data  Lc  msh.o [1]
__rt_errno              0x2000'4eec     0x4  Data  Lc  kservice.o [1]
__rt_ffs                  0x20'25b9    0x46  Code  Gb  kservice.o [1]
__rt_init_finsh_system_init
                          0x20'dd80     0x4  Data  Gb  shell.o [1]
__rt_init_rti_board_end
                          0x20'dd78     0x4  Data  Gb  components.o [1]
__rt_init_rti_board_start
                          0x20'dd74     0x4  Data  Gb  components.o [1]
__rt_init_rti_end         0x20'dd84     0x4  Data  Gb  components.o [1]
__rt_init_rti_start       0x20'dd70     0x4  Data  Gb  components.o [1]
__rt_init_smg_refresh_init
                          0x20'dd7c     0x4  Data  Gb  key.o [1]
__vector_table            0x20'0000   0x100  Data  Gb  startup_iar.o [1]
__vsym_dummy              0x20'd8a0    0x10  Data  Gb  cmd.o [1]
__vsym_dummy_desc         0x20'c878    0x1c  Data  Gb  cmd.o [1]
__vsym_dummy_name         0x20'dd3c     0x8  Data  Gb  cmd.o [1]
_call_main                0x20'ba45          Code  Gb  cmain.o [4]
_console_device         0x2000'4ef0     0x4  Data  Lc  kservice.o [1]
_exit                     0x20'ba89          Code  Gb  cexit.o [4]
_has_defunct_thread       0x20'b051    0x12  Code  Lc  idle.o [1]
_hw_pin                 0x2000'4d70    0x44  Data  Lc  pin.o [1]
_list_device              0x20'1acf    0x72  Code  Lc  cmd.o [1]
_list_event               0x20'16c9    0x88  Code  Lc  cmd.o [1]
_list_mailbox             0x20'17dd    0x9a  Code  Lc  cmd.o [1]
_list_memheap             0x20'1935    0x58  Code  Lc  cmd.o [1]
_list_mempool             0x20'19a1    0x94  Code  Lc  cmd.o [1]
_list_msgqueue            0x20'188d    0x92  Code  Lc  cmd.o [1]
_list_mutex               0x20'1761    0x66  Code  Lc  cmd.o [1]
_list_sem                 0x20'1627    0x92  Code  Lc  cmd.o [1]
_list_thread              0x20'1519    0xd8  Code  Lc  cmd.o [1]
_list_timer               0x20'1a45    0x7a  Code  Lc  cmd.o [1]
_main                     0x20'ba53          Code  Gb  cmain.o [4]
_msh_exec_cmd             0x20'5199    0x90  Code  Lc  msh.o [1]
_msh_exec_cmd::__FUNCTION__
                          0x20'd630    0x10  Data  Lc  msh.o [1]
_pin_control              0x20'9f4d    0x30  Code  Lc  pin.o [1]
_pin_control::__FUNCTION__
                          0x20'd670    0x10  Data  Lc  pin.o [1]
_pin_read                 0x20'9ee5    0x34  Code  Lc  pin.o [1]
_pin_read::__FUNCTION__
                          0x20'da60     0xc  Data  Lc  pin.o [1]
_pin_write                0x20'9f19    0x34  Code  Lc  pin.o [1]
_pin_write::__FUNCTION__
                          0x20'da6c     0xc  Data  Lc  pin.o [1]
_rt_scheduler_stack_check
                          0x20'26db    0x58  Code  Lc  scheduler.o [1]
_rt_scheduler_stack_check::__FUNCTION__
                          0x20'c728    0x1c  Data  Lc  scheduler.o [1]
_rt_thread_init           0x20'2de7    0xb0  Code  Lc  thread.o [1]
_rt_thread_init::__FUNCTION__
                          0x20'd7a0    0x10  Data  Lc  thread.o [1]
_rt_timer_init            0x20'3bdb    0x30  Code  Lc  timer.o [1]
_rt_timer_remove          0x20'3c0b    0x1a  Code  Lc  timer.o [1]
_serial_int_rx            0x20'7479    0x90  Code  Lc  serial.o [1]
_serial_int_rx::__FUNCTION__
                          0x20'd6e0    0x10  Data  Lc  serial.o [1]
_serial_int_tx            0x20'7509    0x66  Code  Lc  serial.o [1]
_serial_int_tx::__FUNCTION__
                          0x20'd6f0    0x10  Data  Lc  serial.o [1]
_serial_poll_rx           0x20'73ed    0x40  Code  Lc  serial.o [1]
_serial_poll_rx::__FUNCTION__
                          0x20'd6c0    0x10  Data  Lc  serial.o [1]
_serial_poll_tx           0x20'742d    0x4c  Code  Lc  serial.o [1]
_serial_poll_tx::__FUNCTION__
                          0x20'd6d0    0x10  Data  Lc  serial.o [1]
_stm32_pin_ops            0x20'c8e8    0x18  Data  Lc  CC2538GPIO.o [1]
_syscall_table_begin    0x2000'4f48     0x4  Data  Gb  symbol.o [1]
_syscall_table_end      0x2000'4f4c     0x4  Data  Gb  symbol.o [1]
_sysvar_table_begin     0x2000'4f50     0x4  Data  Gb  symbol.o [1]
_sysvar_table_end       0x2000'4f54     0x4  Data  Gb  symbol.o [1]
allocate_list           0x2000'4ec0     0x4  Data  Lc  finsh_heap.o [1]
appUartIsr                0x20'b495    0x2c  Code  Lc  board.o [1]
atoi                      0x20'6b2d     0x2  Code  Gb  iar_Stoulx.o [2]
beep_off                  0x20'aeff    0x16  Code  Gb  key.o [1]
beep_on                   0x20'aedd    0x22  Code  Gb  key.o [1]
bspLedToggle              0x20'a693    0x28  Code  Gb  LED.o [1]
bspUart0IsrHandler        0x20'a2bd    0x30  Code  Gb  rt_uart.o [1]
bspUart1IsrHandler        0x20'a2ed    0x30  Code  Gb  rt_uart.o [1]
bus_fault_track           0x20'4039    0x68  Code  Lc  cpuport.o [1]
cmd_free                  0x20'cd17     0xa  Code  Gb  msh_cmd.o [1]
cmd_ps                    0x20'cd09     0xa  Code  Gb  msh_cmd.o [1]
cmd_time                  0x20'cd13     0x4  Code  Gb  msh_cmd.o [1]
counter                 0x2000'4f75     0x1  Data  Gb  key.o [1]
digits                    0x20'b60c    0x28  Data  Lc  iar_Stoulx.o [2]
divide                    0x20'20a1    0x2c  Code  Lc  kservice.o [1]
dummy                   0x2000'4ea0     0x4  Data  Lc  cmd.o [1]
dummy_stack             0x2000'7800     0x4  Data  Lc  startup_iar.o [1]
exit                      0x20'ba85     0x4  Code  Gb  exit.o [2]
finsh_block_insert        0x20'68ed    0x3c  Code  Lc  finsh_heap.o [1]
finsh_block_merge         0x20'6967    0x80  Code  Lc  finsh_heap.o [1]
finsh_block_remove        0x20'6929    0x26  Code  Lc  finsh_heap.o [1]
finsh_block_split         0x20'694f    0x18  Code  Lc  finsh_heap.o [1]
finsh_compile             0x20'0101  0x10ac  Code  Lc  finsh_compiler.o [1]
finsh_compile_pc        0x2000'4eb8     0x4  Data  Gb  finsh_compiler.o [1]
finsh_compile_sp        0x2000'4eb4     0x4  Data  Gb  finsh_compiler.o [1]
finsh_compiler_run        0x20'131b    0x56  Code  Gb  finsh_compiler.o [1]
finsh_errno               0x20'1393     0x6  Code  Gb  finsh_error.o [1]
finsh_error_init          0x20'1381     0xa  Code  Gb  finsh_error.o [1]
finsh_error_set           0x20'138b     0x8  Code  Gb  finsh_error.o [1]
finsh_error_string        0x20'1399     0xa  Code  Gb  finsh_error.o [1]
finsh_error_string_table
                        0x2000'43c8    0x3c  Data  Lc  finsh_error.o [1]
finsh_flush               0x20'5e09    0x12  Code  Gb  finsh_init.o [1]
finsh_get_password        0x20'4771     0xc  Code  Gb  shell.o [1]
finsh_get_prompt          0x20'458d    0x6e  Code  Gb  shell.o [1]
finsh_get_prompt::finsh_prompt
                        0x2000'49e4    0x84  Data  Lc  shell.o [1]
finsh_getchar             0x20'4629    0x48  Code  Lc  shell.o [1]
finsh_getchar::__FUNCTION__
                          0x20'd770    0x10  Data  Lc  shell.o [1]
finsh_heap              0x2000'4a68    0x80  Data  Gb  finsh_heap.o [1]
finsh_heap_allocate       0x20'67fb    0x74  Code  Gb  finsh_heap.o [1]
finsh_heap_free           0x20'686f    0x22  Code  Gb  finsh_heap.o [1]
finsh_heap_gc             0x20'6891    0x4a  Code  Lc  finsh_heap.o [1]
finsh_heap_init           0x20'67d1    0x2a  Code  Gb  finsh_heap.o [1]
finsh_init                0x20'5de5    0x1a  Code  Gb  finsh_init.o [1]
finsh_name_table          0x20'b8ec    0x40  Data  Lc  finsh_token.o [1]
finsh_node_allocate       0x20'664d    0x36  Code  Gb  finsh_node.o [1]
finsh_node_init           0x20'6639    0x14  Code  Gb  finsh_node.o [1]
finsh_node_new_char       0x20'6705    0x1c  Code  Gb  finsh_node.o [1]
finsh_node_new_id         0x20'6689    0x7c  Code  Gb  finsh_node.o [1]
finsh_node_new_int        0x20'6721    0x1c  Code  Gb  finsh_node.o [1]
finsh_node_new_long       0x20'673d    0x1c  Code  Gb  finsh_node.o [1]
finsh_node_new_ptr        0x20'67a1    0x1c  Code  Gb  finsh_node.o [1]
finsh_node_new_string     0x20'6759    0x48  Code  Gb  finsh_node.o [1]
finsh_parser_init         0x20'5d35    0x12  Code  Gb  finsh_parser.o [1]
finsh_parser_run          0x20'5c3d    0xf8  Code  Gb  finsh_parser.o [1]
finsh_pc                0x2000'4ecc     0x4  Data  Gb  finsh_vm.o [1]
finsh_prompt_custom     0x2000'4f44     0x4  Data  Lc  shell.o [1]
finsh_run_line            0x20'4865    0xa2  Code  Gb  shell.o [1]
finsh_rx_ind              0x20'4671    0x24  Code  Lc  shell.o [1]
finsh_rx_ind::__FUNCTION__
                          0x20'd780    0x10  Data  Lc  shell.o [1]
finsh_set_device          0x20'4695    0xa4  Code  Gb  shell.o [1]
finsh_set_device::__FUNCTION__
                          0x20'd0e0    0x14  Data  Lc  shell.o [1]
finsh_set_password        0x20'4739    0x38  Code  Gb  shell.o [1]
finsh_set_prompt_mode     0x20'45fb    0x2e  Code  Gb  shell.o [1]
finsh_set_prompt_mode::__FUNCTION__
                          0x20'cb40    0x18  Data  Lc  shell.o [1]
finsh_sp                0x2000'4ec8     0x4  Data  Gb  finsh_vm.o [1]
finsh_stack_bottom        0x20'5dff     0x6  Code  Gb  finsh_init.o [1]
finsh_syscall_lookup      0x20'5d79    0x4c  Code  Gb  finsh_vm.o [1]
finsh_system_function_init
                          0x20'4eb3     0xa  Code  Gb  shell.o [1]
finsh_system_init         0x20'4ed1    0x70  Code  Gb  shell.o [1]
finsh_system_var_init     0x20'4ebd     0xa  Code  Gb  shell.o [1]
finsh_sysvar_lookup       0x20'5f4b    0x4c  Code  Gb  finsh_var.o [1]
finsh_thread_entry        0x20'4a19   0x49a  Code  Gb  shell.o [1]
finsh_token_init          0x20'5fa9    0x18  Code  Gb  finsh_token.o [1]
finsh_token_token         0x20'5fc1    0x1a  Code  Gb  finsh_token.o [1]
finsh_type_check          0x20'11ad   0x16e  Code  Lc  finsh_compiler.o [1]
finsh_var_init            0x20'5e85    0x12  Code  Gb  finsh_var.o [1]
finsh_var_insert          0x20'5e97    0x7c  Code  Gb  finsh_var.o [1]
finsh_var_lookup          0x20'5f13    0x38  Code  Gb  finsh_var.o [1]
finsh_vm_run              0x20'5d49    0x30  Code  Gb  finsh_vm.o [1]
finsh_vm_stack          0x2000'4624   0x100  Data  Gb  finsh_vm.o [1]
finsh_wait_auth           0x20'477d    0xae  Code  Lc  shell.o [1]
free_list               0x2000'4ebc     0x4  Data  Lc  finsh_heap.o [1]
g_pfnRAMVectors         0x2000'4000   0x100  Data  Lc  interrupt.o [1]
g_pui32EnRegs             0x20'ceec    0x14  Data  Lc  interrupt.o [1]
g_pui32IOCPortAOverrideReg
                          0x20'c2ec    0x20  Data  Lc  ioc.o [1]
g_pui32IOCPortASignSelectReg
                          0x20'c36c    0x20  Data  Lc  ioc.o [1]
g_pui32IOCPortBOverrideReg
                          0x20'c30c    0x20  Data  Lc  ioc.o [1]
g_pui32IOCPortBSignSelectReg
                          0x20'c38c    0x20  Data  Lc  ioc.o [1]
g_pui32IOCPortCOverrideReg
                          0x20'c32c    0x20  Data  Lc  ioc.o [1]
g_pui32IOCPortCSignSelectReg
                          0x20'c3ac    0x20  Data  Lc  ioc.o [1]
g_pui32IOCPortDOverrideReg
                          0x20'c34c    0x20  Data  Lc  ioc.o [1]
g_pui32IOCPortDSignSelectReg
                          0x20'c3cc    0x20  Data  Lc  ioc.o [1]
g_pui32RCGCRegs           0x20'cb88    0x18  Data  Lc  sys_ctrl.o [1]
g_ui32Counter           0x2000'4f2c     0x4  Data  Gb  rt_Timer.o [1]
global_errno            0x2000'4f73     0x1  Data  Gb  finsh_error.o [1]
global_node_table       0x2000'44e4   0x140  Data  Gb  finsh_node.o [1]
global_syscall_list     0x2000'4ed0     0x4  Data  Gb  finsh_vm.o [1]
global_sysvar_list      0x2000'4ec4     0x4  Data  Gb  finsh_var.o [1]
global_variable         0x2000'4924    0xc0  Data  Gb  finsh_var.o [1]
hard_fault_track          0x20'40fd    0x4e  Code  Lc  cpuport.o [1]
heap_end                0x2000'4f04     0x4  Data  Lc  mem.o [1]
heap_ptr                0x2000'4f00     0x4  Data  Lc  mem.o [1]
heap_sem                0x2000'4e54    0x20  Data  Lc  mem.o [1]
hello                     0x20'14b1     0xe  Code  Gb  cmd.o [1]
hwtimer_sample            0x20'b283    0xba  Code  Lc  display.o [1]
idle                    0x2000'4b68    0x80  Data  Lc  idle.o [1]
idle_hook_list          0x2000'4e74    0x10  Data  Lc  idle.o [1]
ioPinIntRegister          0x20'7b91   0x164  Code  Gb  io_pin_int.o [1]
ioPinIntUnregister        0x20'7cf5    0x80  Code  Gb  io_pin_int.o [1]
ioPortAIsr                0x20'7d75    0xb2  Code  Lc  io_pin_int.o [1]
ioPortBIsr                0x20'7e29    0xb2  Code  Lc  io_pin_int.o [1]
ioPortCIsr                0x20'7edd    0xb2  Code  Lc  io_pin_int.o [1]
ioPortDIsr                0x20'7f91    0xb2  Code  Lc  io_pin_int.o [1]
isconn                  0x2000'4f72     0x1  Data  Gb  Application.o [1]
led                       0x20'a6f7    0x72  Code  Gb  LED.o [1]
led_inited              0x2000'4f76     0x1  Data  Lc  LED.o [1]
lfree                   0x2000'4f08     0x4  Data  Lc  mem.o [1]
list                      0x20'1b51    0x8c  Code  Gb  cmd.o [1]
list_device               0x20'1b41    0x10  Code  Gb  cmd.o [1]
list_event                0x20'1751    0x10  Code  Gb  cmd.o [1]
list_mailbox              0x20'187d    0x10  Code  Gb  cmd.o [1]
list_mem                  0x20'3afd    0x22  Code  Gb  mem.o [1]
list_memheap              0x20'1991    0x10  Code  Gb  cmd.o [1]
list_mempool              0x20'1a35    0x10  Code  Gb  cmd.o [1]
list_msgqueue             0x20'1925    0x10  Code  Gb  cmd.o [1]
list_mutex                0x20'17cd    0x10  Code  Gb  cmd.o [1]
list_prefix               0x20'1c2d   0x19e  Code  Gb  cmd.o [1]
list_sem                  0x20'16b9    0x10  Code  Gb  cmd.o [1]
list_thread               0x20'15f1    0x10  Code  Gb  cmd.o [1]
list_timer                0x20'1abf    0x10  Code  Gb  cmd.o [1]
main                      0x20'b89d     0xe  Code  Gb  strart_rtt.o [1]
make_sys_node             0x20'5c17    0x26  Code  Lc  finsh_parser.o [1]
max_mem                 0x2000'4f14     0x4  Data  Lc  mem.o [1]
mem_manage_fault_track    0x20'40a1    0x5c  Code  Lc  cpuport.o [1]
mem_size_aligned        0x2000'4f0c     0x4  Data  Lc  mem.o [1]
memchr                    0x20'6b39          Code  Gb  memchr.o [4]
memcmp                    0x20'5e1d          Code  Gb  memcmp.o [4]
msh_auto_complete         0x20'52a5    0x8a  Code  Gb  msh.o [1]
msh_enter                 0x20'5055     0xc  Code  Lc  msh.o [1]
msh_exec                  0x20'5229    0x52  Code  Gb  msh.o [1]
msh_exit                  0x20'5049     0xc  Code  Lc  msh.o [1]
msh_get_cmd               0x20'5153    0x46  Code  Lc  msh.o [1]
msh_help                  0x20'5061    0x3e  Code  Gb  msh.o [1]
msh_is_used               0x20'5041     0x8  Code  Gb  msh.o [1]
msh_split                 0x20'509f    0xb4  Code  Lc  msh.o [1]
ndigs                     0x20'b5e4    0x28  Data  Lc  iar_Stoulx.o [2]
num                     0x2000'4f30     0x4  Data  Gb  rt_Timer.o [1]
object_name_maxlen        0x20'14c9    0x3a  Code  Lc  cmd.o [1]
object_split              0x20'1503    0x16  Code  Lc  cmd.o [1]
op_table                  0x20'b35c    0xc4  Data  Gb  finsh_ops.o [1]
pfnPortAIsr             0x2000'4dd4    0x20  Data  Lc  io_pin_int.o [1]
pfnPortBIsr             0x2000'4df4    0x20  Data  Lc  io_pin_int.o [1]
pfnPortCIsr             0x2000'4e14    0x20  Data  Lc  io_pin_int.o [1]
pfnPortDIsr             0x2000'4e34    0x20  Data  Lc  io_pin_int.o [1]
pin_beep_sample           0x20'afab    0x3c  Code  Lc  key.o [1]
pin_irq_hdr_tab         0x2000'423c   0x18c  Data  Gb  CC2538GPIO.o [1]
plug_holes                0x20'3661    0xa8  Code  Lc  mem.o [1]
plug_holes::__FUNCTION__
                          0x20'da30     0xc  Data  Lc  mem.o [1]
print_number              0x20'20ef   0x146  Code  Lc  kservice.o [1]
print_number::large_digits
                          0x20'cf28    0x14  Data  Lc  kservice.o [1]
print_number::small_digits
                          0x20'cf14    0x14  Data  Lc  kservice.o [1]
proc_additive_expr        0x20'589b    0x72  Code  Lc  finsh_parser.o [1]
proc_and_expr             0x20'57e1    0x46  Code  Lc  finsh_parser.o [1]
proc_assign_expr          0x20'5723    0x32  Code  Lc  finsh_parser.o [1]
proc_cast_expr            0x20'5999    0x48  Code  Lc  finsh_parser.o [1]
proc_exclusive_or_expr    0x20'579b    0x46  Code  Lc  finsh_parser.o [1]
proc_expr                 0x20'571b     0x8  Code  Lc  finsh_parser.o [1]
proc_expr_statement       0x20'56e3    0x38  Code  Lc  finsh_parser.o [1]
proc_identifier           0x20'56b7    0x2c  Code  Lc  finsh_parser.o [1]
proc_inclusive_or_expr    0x20'5755    0x46  Code  Lc  finsh_parser.o [1]
proc_multiplicative_expr
                          0x20'590d    0x8c  Code  Lc  finsh_parser.o [1]
proc_param_list           0x20'5bcd    0x4a  Code  Lc  finsh_parser.o [1]
proc_postfix_expr         0x20'5a93    0xa4  Code  Lc  finsh_parser.o [1]
proc_primary_expr         0x20'5b37    0x96  Code  Lc  finsh_parser.o [1]
proc_shift_expr           0x20'5827    0x74  Code  Lc  finsh_parser.o [1]
proc_type                 0x20'5595   0x122  Code  Lc  finsh_parser.o [1]
proc_unary_expr           0x20'59e1    0xb2  Code  Lc  finsh_parser.o [1]
proc_variable_decl        0x20'539b   0x1fa  Code  Lc  finsh_parser.o [1]
rt_application_init       0x20'a4fd    0x7e  Code  Gb  Application.o [1]
rt_assert_handler         0x20'25ff    0x2e  Code  Gb  kservice.o [1]
rt_assert_hook          0x2000'4ef4     0x4  Data  Gb  kservice.o [1]
rt_calloc                 0x20'39cd    0x24  Code  Gb  mem.o [1]
rt_completion_done        0x20'7b2b    0x48  Code  Gb  completion.o [1]
rt_completion_done::__FUNCTION__
                          0x20'ce38    0x14  Data  Lc  completion.o [1]
rt_completion_init        0x20'7a3f    0x2a  Code  Gb  completion.o [1]
rt_completion_init::__FUNCTION__
                          0x20'ce10    0x14  Data  Lc  completion.o [1]
rt_completion_wait        0x20'7a69    0xc2  Code  Gb  completion.o [1]
rt_completion_wait::__FUNCTION__
                          0x20'ce24    0x14  Data  Lc  completion.o [1]
rt_components_init        0x20'a5dd    0x14  Code  Gb  components.o [1]
rt_console_get_device     0x20'253b     0x6  Code  Gb  kservice.o [1]
rt_console_set_device     0x20'2541    0x2a  Code  Gb  kservice.o [1]
rt_current_priority     0x2000'4f77     0x1  Data  Gb  scheduler.o [1]
rt_current_thread       0x2000'4f34     0x4  Data  Gb  scheduler.o [1]
rt_device_close           0x20'338f    0x68  Code  Gb  device.o [1]
rt_device_close::__FUNCTION__
                          0x20'd500    0x10  Data  Lc  device.o [1]
rt_device_control         0x20'34bb    0x46  Code  Gb  device.o [1]
rt_device_control::__FUNCTION__
                          0x20'ce74    0x14  Data  Lc  device.o [1]
rt_device_find            0x20'3273    0x68  Code  Gb  device.o [1]
rt_device_find::__FUNCTION__
                          0x20'd4e0    0x10  Data  Lc  device.o [1]
rt_device_hwtimer_isr     0x20'8e2b    0x5c  Code  Gb  hwtimer.o [1]
rt_device_hwtimer_isr::__FUNCTION__
                          0x20'ca80    0x18  Data  Lc  hwtimer.o [1]
rt_device_hwtimer_register
                          0x20'8e87    0x5c  Code  Gb  hwtimer.o [1]
rt_device_hwtimer_register::__FUNCTION__
                          0x20'c680    0x1c  Data  Lc  hwtimer.o [1]
rt_device_open            0x20'32db    0xb4  Code  Gb  device.o [1]
rt_device_open::__FUNCTION__
                          0x20'd4f0    0x10  Data  Lc  device.o [1]
rt_device_pin_register    0x20'9f7d    0x3a  Code  Gb  pin.o [1]
rt_device_read            0x20'33f7    0x62  Code  Gb  device.o [1]
rt_device_read::__FUNCTION__
                          0x20'd510    0x10  Data  Lc  device.o [1]
rt_device_register        0x20'3239    0x3a  Code  Gb  device.o [1]
rt_device_set_rx_indicate
                          0x20'3501    0x32  Code  Gb  device.o [1]
rt_device_set_rx_indicate::__FUNCTION__
                          0x20'c62c    0x1c  Data  Lc  device.o [1]
rt_device_write           0x20'3459    0x62  Code  Gb  device.o [1]
rt_device_write::__FUNCTION__
                          0x20'd520    0x10  Data  Lc  device.o [1]
rt_enter_critical         0x20'2899    0x14  Code  Gb  scheduler.o [1]
rt_exception_hook       0x2000'4eb0     0x4  Data  Lc  cpuport.o [1]
rt_exit_critical          0x20'28ad    0x32  Code  Gb  scheduler.o [1]
rt_free                   0x20'39f1   0x106  Code  Gb  mem.o [1]
rt_free::__FUNCTION__     0x20'dcac     0x8  Data  Lc  mem.o [1]
rt_free_hook            0x2000'4efc     0x4  Data  Lc  mem.o [1]
rt_hw_board_init          0x20'b455    0x3e  Code  Gb  board.o [1]
rt_hw_context_switch      0x20'3573          Code  Gb  context_iar.o [1]
rt_hw_context_switch_interrupt
                          0x20'3573          Code  Gb  context_iar.o [1]
rt_hw_context_switch_to
                          0x20'35cd          Code  Gb  context_iar.o [1]
rt_hw_hard_fault_exception
                          0x20'414b    0xbe  Code  Gb  cpuport.o [1]
rt_hw_interrupt_disable
                          0x20'3565          Code  Gb  context_iar.o [1]
rt_hw_interrupt_enable    0x20'356d          Code  Gb  context_iar.o [1]
rt_hw_interrupt_thread_switch
                          0x20'3605          Code  Gb  context_iar.o [1]
rt_hw_led_init            0x20'a5f9    0x18  Code  Gb  LED.o [1]
rt_hw_led_off             0x20'a611    0x42  Code  Gb  LED.o [1]
rt_hw_led_off::__FUNCTION__
                          0x20'd600    0x10  Data  Lc  LED.o [1]
rt_hw_led_on              0x20'a653    0x40  Code  Gb  LED.o [1]
rt_hw_led_on::__FUNCTION__
                          0x20'd610    0x10  Data  Lc  LED.o [1]
rt_hw_led_toggle          0x20'a6bb    0x3c  Code  Gb  LED.o [1]
rt_hw_led_toggle::__FUNCTION__
                          0x20'cf3c    0x14  Data  Lc  LED.o [1]
rt_hw_serial_init         0x20'a31d    0x46  Code  Gb  rt_uart.o [1]
rt_hw_serial_isr          0x20'78f7    0xc4  Code  Gb  serial.o [1]
rt_hw_serial_isr::__FUNCTION__
                          0x20'd0b8    0x14  Data  Lc  serial.o [1]
rt_hw_serial_register     0x20'78a9    0x4e  Code  Gb  serial.o [1]
rt_hw_serial_register::__FUNCTION__
                          0x20'cb28    0x18  Data  Lc  serial.o [1]
rt_hw_smg_init            0x20'af15     0x2  Code  Gb  key.o [1]
rt_hw_stack_init          0x20'3f99    0x3e  Code  Gb  cpuport.o [1]
rt_hw_timer_init          0x20'accf    0x12  Code  Gb  rt_Timer.o [1]
rt_hwtimer_close          0x20'8c2b    0x32  Code  Lc  hwtimer.o [1]
rt_hwtimer_control        0x20'8d6f    0xbc  Code  Lc  hwtimer.o [1]
rt_hwtimer_init           0x20'8bbb    0x4e  Code  Lc  hwtimer.o [1]
rt_hwtimer_open           0x20'8c09    0x22  Code  Lc  hwtimer.o [1]
rt_hwtimer_read           0x20'8c5d    0xb0  Code  Lc  hwtimer.o [1]
rt_hwtimer_write          0x20'8d0d    0x62  Code  Lc  hwtimer.o [1]
rt_init_thread_entry      0x20'a3a1   0x11e  Code  Gb  Application.o [1]
rt_interrupt_enter        0x20'2d01    0x24  Code  Gb  irq.o [1]
rt_interrupt_enter_hook
                        0x2000'4ee4     0x4  Data  Lc  irq.o [1]
rt_interrupt_from_thread
                        0x2000'4ea4     0x4  Data  Gb  cpuport.o [1]
rt_interrupt_get_nest     0x20'2d49     0x6  Code  Gb  irq.o [1]
rt_interrupt_leave        0x20'2d25    0x24  Code  Gb  irq.o [1]
rt_interrupt_leave_hook
                        0x2000'4ee8     0x4  Data  Lc  irq.o [1]
rt_interrupt_nest       0x2000'4f74     0x1  Data  Gb  irq.o [1]
rt_interrupt_to_thread  0x2000'4ea8     0x4  Data  Gb  cpuport.o [1]
rt_ipc_list_resume        0x20'4367     0xe  Code  Lc  ipc.o [1]
rt_ipc_list_suspend       0x20'430b    0x5c  Code  Lc  ipc.o [1]
rt_ipc_object_init        0x20'42ff     0xc  Code  Lc  ipc.o [1]
rt_kprintf                0x20'256b    0x4e  Code  Gb  kservice.o [1]
rt_kprintf::rt_log_buf  0x2000'4be8    0x80  Data  Lc  kservice.o [1]
rt_list_init              0x20'7a19     0x8  Code  Lc  completion.o [1]
rt_list_init              0x20'42d9     0x8  Code  Lc  ipc.o [1]
rt_list_init              0x20'26a1     0x8  Code  Lc  scheduler.o [1]
rt_list_init              0x20'2d5d     0x8  Code  Lc  thread.o [1]
rt_list_init              0x20'3ba1     0x8  Code  Lc  timer.o [1]
rt_list_insert_after      0x20'2919     0xe  Code  Lc  object.o [1]
rt_list_insert_after      0x20'2d65     0xe  Code  Lc  thread.o [1]
rt_list_insert_after      0x20'3ba9     0xe  Code  Lc  timer.o [1]
rt_list_insert_before     0x20'7a21     0xe  Code  Lc  completion.o [1]
rt_list_insert_before     0x20'42e1     0xe  Code  Lc  ipc.o [1]
rt_list_insert_before     0x20'26a9     0xe  Code  Lc  scheduler.o [1]
rt_list_insert_before     0x20'2d73     0xe  Code  Lc  thread.o [1]
rt_list_isempty           0x20'148d    0x10  Code  Lc  cmd.o [1]
rt_list_isempty           0x20'7a2f    0x10  Code  Lc  completion.o [1]
rt_list_isempty           0x20'42ef    0x10  Code  Lc  ipc.o [1]
rt_list_isempty           0x20'26cb    0x10  Code  Lc  scheduler.o [1]
rt_list_isempty           0x20'3bcb    0x10  Code  Lc  timer.o [1]
rt_list_len               0x20'149d    0x14  Code  Lc  cmd.o [1]
rt_list_remove            0x20'b03d    0x14  Code  Lc  idle.o [1]
rt_list_remove            0x20'2927    0x14  Code  Lc  object.o [1]
rt_list_remove            0x20'26b7    0x14  Code  Lc  scheduler.o [1]
rt_list_remove            0x20'2d81    0x14  Code  Lc  thread.o [1]
rt_list_remove            0x20'3bb7    0x14  Code  Lc  timer.o [1]
rt_malloc                 0x20'37c9   0x200  Code  Gb  mem.o [1]
rt_malloc::__FUNCTION__
                          0x20'da3c     0xc  Data  Lc  mem.o [1]
rt_malloc_hook          0x2000'4ef8     0x4  Data  Lc  mem.o [1]
rt_memcpy                 0x20'1f5d    0x66  Code  Gb  kservice.o [1]
rt_memmove                0x20'1fc3    0x3e  Code  Gb  kservice.o [1]
rt_memset                 0x20'1f09    0x54  Code  Gb  kservice.o [1]
rt_object_allocate        0x20'2a25    0x9c  Code  Gb  object.o [1]
rt_object_allocate::__FUNCTION__
                          0x20'cfb4    0x14  Data  Lc  object.o [1]
rt_object_attach_hook   0x2000'4f18     0x4  Data  Lc  object.o [1]
rt_object_container     0x2000'441c    0xa0  Data  Lc  object.o [1]
rt_object_delete          0x20'2ac1    0x54  Code  Gb  object.o [1]
rt_object_delete::__FUNCTION__
                          0x20'cfc8    0x14  Data  Lc  object.o [1]
rt_object_detach          0x20'29e9    0x3c  Code  Gb  object.o [1]
rt_object_detach::__FUNCTION__
                          0x20'cf8c    0x14  Data  Lc  object.o [1]
rt_object_detach_hook   0x2000'4f1c     0x4  Data  Lc  object.o [1]
rt_object_get_information
                          0x20'293b    0x26  Code  Gb  object.o [1]
rt_object_get_type        0x20'2b37    0x1c  Code  Gb  object.o [1]
rt_object_get_type::__FUNCTION__
                          0x20'cfdc    0x14  Data  Lc  object.o [1]
rt_object_init            0x20'2961    0x88  Code  Gb  object.o [1]
rt_object_init::__FUNCTION__
                          0x20'd640    0x10  Data  Lc  object.o [1]
rt_object_is_systemobject
                          0x20'2b15    0x22  Code  Gb  object.o [1]
rt_object_is_systemobject::__FUNCTION__
                          0x20'c70c    0x1c  Data  Lc  object.o [1]
rt_object_put_hook      0x2000'4f28     0x4  Data  Gb  object.o [1]
rt_object_take_hook     0x2000'4f24     0x4  Data  Gb  object.o [1]
rt_object_trytake_hook  0x2000'4f20     0x4  Data  Gb  object.o [1]
rt_pin_attach_irq         0x20'9fb7    0x46  Code  Gb  pin.o [1]
rt_pin_attach_irq::__FUNCTION__
                          0x20'cff0    0x14  Data  Lc  pin.o [1]
rt_pin_irq_enable         0x20'9ffd    0x32  Code  Gb  pin.o [1]
rt_pin_irq_enable::__FUNCTION__
                          0x20'd004    0x14  Data  Lc  pin.o [1]
rt_pin_mode               0x20'a02f    0x26  Code  Gb  pin.o [1]
rt_pin_mode::__FUNCTION__
                          0x20'da78     0xc  Data  Lc  pin.o [1]
rt_pin_read               0x20'a07b    0x22  Code  Gb  pin.o [1]
rt_pin_read::__FUNCTION__
                          0x20'da84     0xc  Data  Lc  pin.o [1]
rt_pin_tab              0x2000'413c   0x100  Data  Gb  CC2538GPIO.o [1]
rt_pin_write              0x20'a055    0x26  Code  Gb  pin.o [1]
rt_pin_write::__FUNCTION__
                          0x20'd680    0x10  Data  Lc  pin.o [1]
rt_schedule               0x20'2789    0x7c  Code  Gb  scheduler.o [1]
rt_schedule_insert_thread
                          0x20'2805    0x4e  Code  Gb  scheduler.o [1]
rt_schedule_insert_thread::__FUNCTION__
                          0x20'c760    0x1c  Data  Lc  scheduler.o [1]
rt_schedule_remove_thread
                          0x20'2853    0x46  Code  Gb  scheduler.o [1]
rt_schedule_remove_thread::__FUNCTION__
                          0x20'c77c    0x1c  Data  Lc  scheduler.o [1]
rt_scheduler_hook       0x2000'4f3c     0x4  Data  Lc  scheduler.o [1]
rt_scheduler_lock_nest  0x2000'4f70     0x2  Data  Lc  scheduler.o [1]
rt_sem_init               0x20'4375    0x48  Code  Gb  ipc.o [1]
rt_sem_init::__FUNCTION__
                          0x20'da00     0xc  Data  Lc  ipc.o [1]
rt_sem_release            0x20'44e1    0x7a  Code  Gb  ipc.o [1]
rt_sem_release::__FUNCTION__
                          0x20'd5c0    0x10  Data  Lc  ipc.o [1]
rt_sem_take               0x20'43bd   0x124  Code  Gb  ipc.o [1]
rt_sem_take::__FUNCTION__
                          0x20'da0c     0xc  Data  Lc  ipc.o [1]
rt_serial_close           0x20'770b    0x98  Code  Lc  serial.o [1]
rt_serial_close::__FUNCTION__
                          0x20'd740    0x10  Data  Lc  serial.o [1]
rt_serial_control         0x20'781b    0x8e  Code  Lc  serial.o [1]
rt_serial_control::__FUNCTION__
                          0x20'd0a4    0x14  Data  Lc  serial.o [1]
rt_serial_init            0x20'756f    0x3c  Code  Lc  serial.o [1]
rt_serial_init::__FUNCTION__
                          0x20'd710    0x10  Data  Lc  serial.o [1]
rt_serial_open            0x20'75ab   0x160  Code  Lc  serial.o [1]
rt_serial_open::__FUNCTION__
                          0x20'd730    0x10  Data  Lc  serial.o [1]
rt_serial_read            0x20'77a3    0x3c  Code  Lc  serial.o [1]
rt_serial_read::__FUNCTION__
                          0x20'd750    0x10  Data  Lc  serial.o [1]
rt_serial_write           0x20'77df    0x3c  Code  Lc  serial.o [1]
rt_serial_write::__FUNCTION__
                          0x20'd760    0x10  Data  Lc  serial.o [1]
rt_set_errno              0x20'1ee1    0x28  Code  Gb  kservice.o [1]
rt_show_version           0x20'2071    0x30  Code  Gb  kservice.o [1]
rt_strlen                 0x20'2061    0x10  Code  Gb  kservice.o [1]
rt_strncmp                0x20'202f    0x32  Code  Gb  kservice.o [1]
rt_strncpy                0x20'2001    0x2e  Code  Gb  kservice.o [1]
rt_system_heap_init       0x20'3709    0xc0  Code  Gb  mem.o [1]
rt_system_heap_init::__FUNCTION__
                          0x20'cf50    0x14  Data  Lc  mem.o [1]
rt_system_scheduler_init
                          0x20'2733    0x36  Code  Gb  scheduler.o [1]
rt_system_scheduler_start
                          0x20'2769    0x20  Code  Gb  scheduler.o [1]
rt_system_timer_init      0x20'3f3f    0x18  Code  Gb  timer.o [1]
rt_system_timer_thread_init
                          0x20'3f95     0x2  Code  Gb  timer.o [1]
rt_thread_create          0x20'2f81    0x56  Code  Gb  thread.o [1]
rt_thread_defunct       0x2000'4e84     0x8  Data  Gb  scheduler.o [1]
rt_thread_delay           0x20'308f     0x8  Code  Gb  thread.o [1]
rt_thread_exit            0x20'2d95    0x52  Code  Gb  thread.o [1]
rt_thread_idle_entry      0x20'b101    0x22  Code  Lc  idle.o [1]
rt_thread_idle_excute     0x20'b063    0x9e  Code  Gb  idle.o [1]
rt_thread_idle_excute::__FUNCTION__
                          0x20'cab0    0x18  Data  Lc  idle.o [1]
rt_thread_idle_init       0x20'b123    0x2a  Code  Gb  idle.o [1]
rt_thread_init            0x20'2e97    0x68  Code  Gb  thread.o [1]
rt_thread_init::__FUNCTION__
                          0x20'd7b0    0x10  Data  Lc  thread.o [1]
rt_thread_inited_hook   0x2000'4f60     0x4  Data  Lc  thread.o [1]
rt_thread_mdelay          0x20'3097     0xc  Code  Gb  thread.o [1]
rt_thread_priority_table
                        0x2000'4824   0x100  Data  Gb  scheduler.o [1]
rt_thread_ready_priority_group
                        0x2000'4f38     0x4  Data  Gb  scheduler.o [1]
rt_thread_resume          0x20'311b    0x70  Code  Gb  thread.o [1]
rt_thread_resume::__FUNCTION__
                          0x20'd158    0x14  Data  Lc  thread.o [1]
rt_thread_resume_hook   0x2000'4f5c     0x4  Data  Lc  thread.o [1]
rt_thread_self            0x20'2eff     0x8  Code  Gb  thread.o [1]
rt_thread_sleep           0x20'3029    0x66  Code  Gb  thread.o [1]
rt_thread_sleep::__FUNCTION__
                          0x20'd7c0    0x10  Data  Lc  thread.o [1]
rt_thread_stack         0x2000'4724   0x100  Data  Lc  idle.o [1]
rt_thread_startup         0x20'2f07    0x7a  Code  Gb  thread.o [1]
rt_thread_startup::__FUNCTION__
                          0x20'd130    0x14  Data  Lc  thread.o [1]
rt_thread_suspend         0x20'30a3    0x78  Code  Gb  thread.o [1]
rt_thread_suspend::__FUNCTION__
                          0x20'd144    0x14  Data  Lc  thread.o [1]
rt_thread_suspend_hook  0x2000'4f58     0x4  Data  Lc  thread.o [1]
rt_thread_switch_interrupt_flag
                        0x2000'4eac     0x4  Data  Gb  cpuport.o [1]
rt_thread_timeout         0x20'318d    0x5c  Code  Gb  thread.o [1]
rt_thread_timeout::__FUNCTION__
                          0x20'd16c    0x14  Data  Lc  thread.o [1]
rt_thread_yield           0x20'2fd7    0x52  Code  Gb  thread.o [1]
rt_tick                 0x2000'4e9c     0x4  Data  Lc  clock.o [1]
rt_tick_from_millisecond
                          0x20'2bc5    0x34  Code  Gb  clock.o [1]
rt_tick_get               0x20'2b91     0x6  Code  Gb  clock.o [1]
rt_tick_increase          0x20'2b97    0x28  Code  Gb  clock.o [1]
rt_timer_check            0x20'3eb9    0x86  Code  Gb  timer.o [1]
rt_timer_control          0x20'3e59    0x60  Code  Gb  timer.o [1]
rt_timer_control::__FUNCTION__
                          0x20'd194    0x14  Data  Lc  timer.o [1]
rt_timer_detach           0x20'3c67    0x62  Code  Gb  timer.o [1]
rt_timer_detach::__FUNCTION__
                          0x20'd7e0    0x10  Data  Lc  timer.o [1]
rt_timer_enter_hook     0x2000'4f64     0x4  Data  Lc  timer.o [1]
rt_timer_exit_hook      0x2000'4f68     0x4  Data  Lc  timer.o [1]
rt_timer_init             0x20'3c25    0x42  Code  Gb  timer.o [1]
rt_timer_init::__FUNCTION__
                          0x20'd7d0    0x10  Data  Lc  timer.o [1]
rt_timer_list           0x2000'4e8c     0x8  Data  Lc  timer.o [1]
rt_timer_start            0x20'3cc9   0x12e  Code  Gb  timer.o [1]
rt_timer_start::__FUNCTION__
                          0x20'd7f0    0x10  Data  Lc  timer.o [1]
rt_timer_start::random_nr
                        0x2000'4f6c     0x4  Data  Lc  timer.o [1]
rt_timer_stop             0x20'3df7    0x62  Code  Gb  timer.o [1]
rt_timer_stop::__FUNCTION__
                          0x20'd800    0x10  Data  Lc  timer.o [1]
rt_uartget_thread_entry
                          0x20'a4bf    0x32  Code  Gb  Application.o [1]
rt_vsnprintf              0x20'2235   0x306  Code  Gb  kservice.o [1]
rti_board_end             0x20'a5d5     0x4  Code  Lc  components.o [1]
rti_board_start           0x20'a5d1     0x4  Code  Lc  components.o [1]
rti_end                   0x20'a5d9     0x4  Code  Lc  components.o [1]
rti_start                 0x20'a5cd     0x4  Code  Lc  components.o [1]
rtthread_startup          0x20'b869    0x2c  Code  Gb  strart_rtt.o [1]
rx_sem                  0x2000'4db4    0x20  Data  Lc  Application.o [1]
serial0                 0x2000'4e94     0x4  Data  Lc  Application.o [1]
serial0                 0x2000'4cc8    0x54  Data  Gb  rt_uart.o [1]
serial1                 0x2000'4e98     0x4  Data  Lc  Application.o [1]
serial1                 0x2000'4d1c    0x54  Data  Gb  rt_uart.o [1]
shell                   0x2000'4f40     0x4  Data  Gb  shell.o [1]
shell_auto_complete       0x20'482b    0x32  Code  Lc  shell.o [1]
shell_handle_history      0x20'4907    0x22  Code  Lc  shell.o [1]
shell_push_history        0x20'4939    0xe0  Code  Lc  shell.o [1]
show_wait_queue           0x20'1601    0x26  Code  Lc  cmd.o [1]
skip_atoi                 0x20'20cd    0x22  Code  Lc  kservice.o [1]
smg_refresh_entry         0x20'af6b    0x40  Code  Lc  key.o [1]
smg_refresh_init          0x20'afe7    0x2c  Code  Lc  key.o [1]
stm32_hw_pin_init         0x20'9c73    0x38  Code  Gb  CC2538GPIO.o [1]
stm32_pin_attach_irq      0x20'9b05    0x72  Code  Gb  CC2538GPIO.o [1]
stm32_pin_detach_irq      0x20'9b77    0x66  Code  Gb  CC2538GPIO.o [1]
stm32_pin_irq_enable      0x20'9bdd    0x96  Code  Gb  CC2538GPIO.o [1]
stm32_pin_mode            0x20'9a0d    0x82  Code  Gb  CC2538GPIO.o [1]
stm32_pin_read            0x20'9add    0x28  Code  Gb  CC2538GPIO.o [1]
stm32_pin_write           0x20'9a8f    0x4e  Code  Gb  CC2538GPIO.o [1]
str_common                0x20'1c09    0x24  Code  Lc  cmd.o [1]
str_common                0x20'5281    0x24  Code  Lc  msh.o [1]
str_is_prefix             0x20'1be5    0x24  Code  Lc  cmd.o [1]
strcat                    0x20'537d    0x1e  Code  Gb  strcat.o [2]
strcmp                    0x20'67bd          Code  Gb  strcmp.o [4]
strcpy                    0x20'5365          Code  Gb  strcpy.o [4]
strlen                    0x20'2cc9          Code  Gb  strlen.o [4]
strncmp                   0x20'2c9f    0x28  Code  Gb  strncmp.o [2]
strncpy                   0x20'4fd1          Code  Gb  strncpy.o [4]
text_segment            0x2000'4ae8    0x80  Data  Gb  finsh_vm.o [1]
timeout_calc              0x20'8a85   0x136  Code  Lc  hwtimer.o [1]
timeout_cb                0x20'b271    0x12  Code  Lc  display.o [1]
timer0B                 0x2000'4c68    0x60  Data  Gb  rt_Timer.o [1]
timer_control             0x20'ab85    0x6e  Code  Gb  rt_Timer.o [1]
timer_control::__FUNCTION__
                          0x20'd690    0x10  Data  Lc  rt_Timer.o [1]
timer_count_get           0x20'abf3    0x1c  Code  Gb  rt_Timer.o [1]
timer_count_get::__FUNCTION__
                          0x20'd6a0    0x10  Data  Lc  rt_Timer.o [1]
timer_init                0x20'ab45    0x40  Code  Gb  rt_Timer.o [1]
timer_init::__FUNCTION__
                          0x20'da90     0xc  Data  Lc  rt_Timer.o [1]
timer_ops               0x2000'44bc    0x14  Data  Lc  rt_Timer.o [1]
timer_start               0x20'ac5d    0x72  Code  Gb  rt_Timer.o [1]
timer_start::__FUNCTION__
                          0x20'daa8     0xc  Data  Lc  rt_Timer.o [1]
timer_stop                0x20'ac0f    0x1c  Code  Gb  rt_Timer.o [1]
timer_stop::__FUNCTION__
                          0x20'da9c     0xc  Data  Lc  rt_Timer.o [1]
token_get_string          0x20'5fdb    0x80  Code  Gb  finsh_token.o [1]
token_match_name          0x20'625b    0x30  Code  Lc  finsh_token.o [1]
token_next_char           0x20'605b    0x42  Code  Lc  finsh_token.o [1]
token_prev_char           0x20'609d    0x14  Code  Lc  finsh_token.o [1]
token_proc_char           0x20'62b9    0xa0  Code  Lc  finsh_token.o [1]
token_proc_escape         0x20'63ab    0xd8  Code  Lc  finsh_token.o [1]
token_proc_number         0x20'6483   0x134  Code  Lc  finsh_token.o [1]
token_proc_string         0x20'6359    0x52  Code  Lc  finsh_token.o [1]
token_run                 0x20'60b1   0x1aa  Code  Lc  finsh_token.o [1]
token_spec_number         0x20'65b7    0x80  Code  Lc  finsh_token.o [1]
token_trim_space          0x20'6291    0x28  Code  Lc  finsh_token.o [1]
uart03_configure          0x20'a0d9   0x12a  Code  Lc  rt_uart.o [1]
uart03_configure::__FUNCTION__
                          0x20'd02c    0x14  Data  Lc  rt_uart.o [1]
uart03_control            0x20'a203    0x28  Code  Lc  rt_uart.o [1]
uart03_control::__FUNCTION__
                          0x20'd6b0    0x10  Data  Lc  rt_uart.o [1]
uart03_getc               0x20'a26f    0x4e  Code  Lc  rt_uart.o [1]
uart03_getc::__FUNCTION__
                          0x20'dac0     0xc  Data  Lc  rt_uart.o [1]
uart03_ops              0x2000'44d0    0x14  Data  Lc  rt_uart.o [1]
uart03_putc               0x20'a22b    0x44  Code  Lc  rt_uart.o [1]
uart03_putc::__FUNCTION__
                          0x20'dab4     0xc  Data  Lc  rt_uart.o [1]
uart_input                0x20'a4f1     0xc  Code  Lc  Application.o [1]
ui8PortAPinHasIsr       0x2000'4ed4     0x4  Data  Lc  io_pin_int.o [1]
ui8PortBPinHasIsr       0x2000'4ed8     0x4  Data  Lc  io_pin_int.o [1]
ui8PortCPinHasIsr       0x2000'4edc     0x4  Data  Lc  io_pin_int.o [1]
ui8PortDPinHasIsr       0x2000'4ee0     0x4  Data  Lc  io_pin_int.o [1]
usage_fault_track         0x20'3fd7    0x62  Code  Lc  cpuport.o [1]
used_mem                0x2000'4f10     0x4  Data  Lc  mem.o [1]
version                   0x20'14bf     0xa  Code  Gb  cmd.o [1]
writeCString              0x20'aac1    0x2a  Code  Gb  MQTTPacket.o [1]
writeChar                 0x20'aa8b     0xc  Code  Gb  MQTTPacket.o [1]
writeInt                  0x20'aa97    0x2a  Code  Gb  MQTTPacket.o [1]
writeMQTTString           0x20'aaeb    0x42  Code  Gb  MQTTPacket.o [1]


[1] = D:\CC2338_RTThread\cc2538_MQTT\cc2538--mqtt\Debug\Obj
[2] = dl7M_tln.a
[3] = m7M_tl.a
[4] = rt7M_tl.a
[5] = shb_l.a

  45 426 bytes of readonly  code memory
  11 679 bytes of readonly  data memory
  10 104 bytes of readwrite data memory

Errors: none
Warnings: none
